{
	"FundMe.sol": {
		"FundMe": {
			"abi": [
				{
					"inputs": [
						{
							"internalType": "address",
							"name": "funders",
							"type": "address"
						}
					],
					"name": "addressToAmountFunded",
					"outputs": [
						{
							"internalType": "uint256",
							"name": "amountFunded",
							"type": "uint256"
						}
					],
					"stateMutability": "view",
					"type": "function"
				},
				{
					"inputs": [],
					"name": "fund",
					"outputs": [],
					"stateMutability": "payable",
					"type": "function"
				},
				{
					"inputs": [
						{
							"internalType": "uint256",
							"name": "",
							"type": "uint256"
						}
					],
					"name": "funders",
					"outputs": [
						{
							"internalType": "address",
							"name": "",
							"type": "address"
						}
					],
					"stateMutability": "view",
					"type": "function"
				},
				{
					"inputs": [],
					"name": "minimumUsd",
					"outputs": [
						{
							"internalType": "uint256",
							"name": "",
							"type": "uint256"
						}
					],
					"stateMutability": "view",
					"type": "function"
				},
				{
					"inputs": [],
					"name": "withdraw",
					"outputs": [],
					"stateMutability": "nonpayable",
					"type": "function"
				}
			],
			"devdoc": {
				"kind": "dev",
				"methods": {},
				"version": 1
			},
			"evm": {
				"assembly": "    /* \"FundMe.sol\":117:621  contract FundMe {... */\n  mstore(0x40, 0x80)\n    /* \"FundMe.sol\":207:211  5e18 */\n  0x4563918244f40000\n    /* \"FundMe.sol\":179:211  uint256 public minimumUsd = 5e18 */\n  0x00\n  sstore\n    /* \"FundMe.sol\":117:621  contract FundMe {... */\n  callvalue\n  dup1\n  iszero\n  tag_1\n  jumpi\n  revert(0x00, 0x00)\ntag_1:\n  pop\n  dataSize(sub_0)\n  dup1\n  dataOffset(sub_0)\n  0x00\n  codecopy\n  0x00\n  return\nstop\n\nsub_0: assembly {\n        /* \"FundMe.sol\":117:621  contract FundMe {... */\n      mstore(0x40, 0x80)\n      jumpi(tag_1, lt(calldatasize, 0x04))\n      shr(0xe0, calldataload(0x00))\n      dup1\n      0x098de820\n      eq\n      tag_2\n      jumpi\n      dup1\n      0x3ccfd60b\n      eq\n      tag_3\n      jumpi\n      dup1\n      0x3e47d6f3\n      eq\n      tag_4\n      jumpi\n      dup1\n      0xb60d4288\n      eq\n      tag_5\n      jumpi\n      dup1\n      0xdc0d3dff\n      eq\n      tag_6\n      jumpi\n    tag_1:\n      revert(0x00, 0x00)\n        /* \"FundMe.sol\":179:211  uint256 public minimumUsd = 5e18 */\n    tag_2:\n      callvalue\n      dup1\n      iszero\n      tag_7\n      jumpi\n      revert(0x00, 0x00)\n    tag_7:\n      pop\n      tag_8\n      tag_9\n      jump\t// in\n    tag_8:\n      mload(0x40)\n      tag_10\n      swap2\n      swap1\n      tag_11\n      jump\t// in\n    tag_10:\n      mload(0x40)\n      dup1\n      swap2\n      sub\n      swap1\n      return\n        /* \"FundMe.sol\":574:610  function withdraw() public { ... */\n    tag_3:\n      callvalue\n      dup1\n      iszero\n      tag_12\n      jumpi\n      revert(0x00, 0x00)\n    tag_12:\n      pop\n      tag_13\n      tag_14\n      jump\t// in\n    tag_13:\n      stop\n        /* \"FundMe.sol\":249:327  mapping (address funders => uint256 amountFunded) public addressToAmountFunded */\n    tag_4:\n      callvalue\n      dup1\n      iszero\n      tag_15\n      jumpi\n      revert(0x00, 0x00)\n    tag_15:\n      pop\n      tag_16\n      0x04\n      dup1\n      calldatasize\n      sub\n      dup2\n      add\n      swap1\n      tag_17\n      swap2\n      swap1\n      tag_18\n      jump\t// in\n    tag_17:\n      tag_19\n      jump\t// in\n    tag_16:\n      mload(0x40)\n      tag_20\n      swap2\n      swap1\n      tag_11\n      jump\t// in\n    tag_20:\n      mload(0x40)\n      dup1\n      swap2\n      sub\n      swap1\n      return\n        /* \"FundMe.sol\":334:560  function fund() public payable  {... */\n    tag_5:\n      tag_21\n      tag_22\n      jump\t// in\n    tag_21:\n      stop\n        /* \"FundMe.sol\":218:242  address[] public funders */\n    tag_6:\n      callvalue\n      dup1\n      iszero\n      tag_23\n      jumpi\n      revert(0x00, 0x00)\n    tag_23:\n      pop\n      tag_24\n      0x04\n      dup1\n      calldatasize\n      sub\n      dup2\n      add\n      swap1\n      tag_25\n      swap2\n      swap1\n      tag_26\n      jump\t// in\n    tag_25:\n      tag_27\n      jump\t// in\n    tag_24:\n      mload(0x40)\n      tag_28\n      swap2\n      swap1\n      tag_29\n      jump\t// in\n    tag_28:\n      mload(0x40)\n      dup1\n      swap2\n      sub\n      swap1\n      return\n        /* \"FundMe.sol\":179:211  uint256 public minimumUsd = 5e18 */\n    tag_9:\n      sload(0x00)\n      dup2\n      jump\t// out\n        /* \"FundMe.sol\":574:610  function withdraw() public { ... */\n    tag_14:\n      jump\t// out\n        /* \"FundMe.sol\":249:327  mapping (address funders => uint256 amountFunded) public addressToAmountFunded */\n    tag_19:\n      mstore(0x20, 0x02)\n      dup1\n      0x00\n      mstore\n      keccak256(0x00, 0x40)\n      0x00\n      swap2\n      pop\n      swap1\n      pop\n      sload\n      dup2\n      jump\t// out\n        /* \"FundMe.sol\":334:560  function fund() public payable  {... */\n    tag_22:\n        /* \"FundMe.sol\":420:430  minimumUsd */\n      sload(0x00)\n        /* \"FundMe.sol\":387:416  msg.value.getConversionRate() */\n      tag_32\n        /* \"FundMe.sol\":387:396  msg.value */\n      callvalue\n        /* \"FundMe.sol\":387:414  msg.value.getConversionRate */\n      tag_33\n        /* \"FundMe.sol\":387:416  msg.value.getConversionRate() */\n      jump\t// in\n    tag_32:\n        /* \"FundMe.sol\":387:430  msg.value.getConversionRate() >= minimumUsd */\n      lt\n      iszero\n        /* \"FundMe.sol\":379:456  require(msg.value.getConversionRate() >= minimumUsd, \"didnt send enough eth\") */\n      tag_34\n      jumpi\n      mload(0x40)\n      0x08c379a000000000000000000000000000000000000000000000000000000000\n      dup2\n      mstore\n      0x04\n      add\n      tag_35\n      swap1\n      tag_36\n      jump\t// in\n    tag_35:\n      mload(0x40)\n      dup1\n      swap2\n      sub\n      swap1\n      revert\n    tag_34:\n        /* \"FundMe.sol\":469:476  funders */\n      0x01\n        /* \"FundMe.sol\":482:492  msg.sender */\n      caller\n        /* \"FundMe.sol\":469:493  funders.push(msg.sender) */\n      swap1\n      dup1\n      0x01\n      dup2\n      sload\n      add\n      dup1\n      dup3\n      sstore\n      dup1\n      swap2\n      pop\n      pop\n      0x01\n      swap1\n      sub\n      swap1\n      0x00\n      mstore\n      keccak256(0x00, 0x20)\n      add\n      0x00\n      swap1\n      swap2\n      swap1\n      swap2\n      swap1\n      swap2\n      0x0100\n      exp\n      dup2\n      sload\n      dup2\n      0xffffffffffffffffffffffffffffffffffffffff\n      mul\n      not\n      and\n      swap1\n      dup4\n      0xffffffffffffffffffffffffffffffffffffffff\n      and\n      mul\n      or\n      swap1\n      sstore\n      pop\n        /* \"FundMe.sol\":543:552  msg.value */\n      callvalue\n        /* \"FundMe.sol\":506:527  addressToAmountFunded */\n      0x02\n        /* \"FundMe.sol\":506:539  addressToAmountFunded[msg.sender] */\n      0x00\n        /* \"FundMe.sol\":528:538  msg.sender */\n      caller\n        /* \"FundMe.sol\":506:539  addressToAmountFunded[msg.sender] */\n      0xffffffffffffffffffffffffffffffffffffffff\n      and\n      0xffffffffffffffffffffffffffffffffffffffff\n      and\n      dup2\n      mstore\n      0x20\n      add\n      swap1\n      dup2\n      mstore\n      0x20\n      add\n      0x00\n      keccak256\n      0x00\n        /* \"FundMe.sol\":506:552  addressToAmountFunded[msg.sender] += msg.value */\n      dup3\n      dup3\n      sload\n      tag_38\n      swap2\n      swap1\n      tag_39\n      jump\t// in\n    tag_38:\n      swap3\n      pop\n      pop\n      dup2\n      swap1\n      sstore\n      pop\n        /* \"FundMe.sol\":334:560  function fund() public payable  {... */\n      jump\t// out\n        /* \"FundMe.sol\":218:242  address[] public funders */\n    tag_27:\n      0x01\n      dup2\n      dup2\n      sload\n      dup2\n      lt\n      tag_40\n      jumpi\n      0x00\n      dup1\n      revert\n    tag_40:\n      swap1\n      0x00\n      mstore\n      keccak256(0x00, 0x20)\n      add\n      0x00\n      swap2\n      pop\n      sload\n      swap1\n      0x0100\n      exp\n      swap1\n      div\n      0xffffffffffffffffffffffffffffffffffffffff\n      and\n      dup2\n      jump\t// out\n        /* \"PriceConverter.sol\":549:771  function getConversionRate(uint256 ethAmount) internal view returns (uint256){... */\n    tag_33:\n        /* \"PriceConverter.sol\":618:625  uint256 */\n      0x00\n        /* \"PriceConverter.sol\":637:653  uint256 ethPrice */\n      0x00\n        /* \"PriceConverter.sol\":656:666  getPrice() */\n      tag_43\n        /* \"PriceConverter.sol\":656:664  getPrice */\n      tag_44\n        /* \"PriceConverter.sol\":656:666  getPrice() */\n      jump\t// in\n    tag_43:\n        /* \"PriceConverter.sol\":637:666  uint256 ethPrice = getPrice() */\n      swap1\n      pop\n        /* \"PriceConverter.sol\":677:699  uint256 ethAmountInUsd */\n      0x00\n        /* \"PriceConverter.sol\":727:731  1e18 */\n      0x0de0b6b3a7640000\n        /* \"PriceConverter.sol\":714:723  ethAmount */\n      dup5\n        /* \"PriceConverter.sol\":703:711  ethPrice */\n      dup4\n        /* \"PriceConverter.sol\":703:723  ethPrice * ethAmount */\n      tag_45\n      swap2\n      swap1\n      tag_46\n      jump\t// in\n    tag_45:\n        /* \"PriceConverter.sol\":702:731  (ethPrice * ethAmount) / 1e18 */\n      tag_47\n      swap2\n      swap1\n      tag_48\n      jump\t// in\n    tag_47:\n        /* \"PriceConverter.sol\":677:731  uint256 ethAmountInUsd = (ethPrice * ethAmount) / 1e18 */\n      swap1\n      pop\n        /* \"PriceConverter.sol\":749:763  ethAmountInUsd */\n      dup1\n        /* \"PriceConverter.sol\":742:763  return ethAmountInUsd */\n      swap3\n      pop\n      pop\n      pop\n        /* \"PriceConverter.sol\":549:771  function getConversionRate(uint256 ethAmount) internal view returns (uint256){... */\n      swap2\n      swap1\n      pop\n      jump\t// out\n        /* \"PriceConverter.sol\":209:543  function getPrice() internal  view returns (uint256) {... */\n    tag_44:\n        /* \"PriceConverter.sol\":253:260  uint256 */\n      0x00\n        /* \"PriceConverter.sol\":337:368  AggregatorV3Interface priceFeed */\n      0x00\n        /* \"PriceConverter.sol\":393:435  0x694AA1769357215DE4FAC081bf1f309aDC325306 */\n      0x694aa1769357215de4fac081bf1f309adc325306\n        /* \"PriceConverter.sol\":337:436  AggregatorV3Interface priceFeed = AggregatorV3Interface(0x694AA1769357215DE4FAC081bf1f309aDC325306) */\n      swap1\n      pop\n        /* \"PriceConverter.sol\":449:462  int256 answer */\n      0x00\n        /* \"PriceConverter.sol\":468:477  priceFeed */\n      dup2\n        /* \"PriceConverter.sol\":468:493  priceFeed.latestRoundData */\n      0xffffffffffffffffffffffffffffffffffffffff\n      and\n      0xfeaf968c\n        /* \"PriceConverter.sol\":468:495  priceFeed.latestRoundData() */\n      mload(0x40)\n      dup2\n      0xffffffff\n      and\n      0xe0\n      shl\n      dup2\n      mstore\n      0x04\n      add\n      0xa0\n      mload(0x40)\n      dup1\n      dup4\n      sub\n      dup2\n      dup7\n      gas\n      staticcall\n      iszero\n      dup1\n      iszero\n      tag_51\n      jumpi\n      returndatacopy(0x00, 0x00, returndatasize)\n      revert(0x00, returndatasize)\n    tag_51:\n      pop\n      pop\n      pop\n      pop\n      mload(0x40)\n      returndatasize\n      not(0x1f)\n      0x1f\n      dup3\n      add\n      and\n      dup3\n      add\n      dup1\n      0x40\n      mstore\n      pop\n      dup2\n      add\n      swap1\n      tag_52\n      swap2\n      swap1\n      tag_53\n      jump\t// in\n    tag_52:\n        /* \"PriceConverter.sol\":447:495  (,int256 answer,,,)= priceFeed.latestRoundData() */\n      pop\n      pop\n      pop\n      swap2\n      pop\n      pop\n        /* \"PriceConverter.sol\":530:534  1e10 */\n      0x02540be400\n        /* \"PriceConverter.sol\":521:527  answer */\n      dup2\n        /* \"PriceConverter.sol\":521:534  answer * 1e10 */\n      tag_54\n      swap2\n      swap1\n      tag_55\n      jump\t// in\n    tag_54:\n        /* \"PriceConverter.sol\":506:535  return uint256(answer * 1e10) */\n      swap3\n      pop\n      pop\n      pop\n        /* \"PriceConverter.sol\":209:543  function getPrice() internal  view returns (uint256) {... */\n      swap1\n      jump\t// out\n        /* \"#utility.yul\":7:84   */\n    tag_56:\n        /* \"#utility.yul\":44:51   */\n      0x00\n        /* \"#utility.yul\":73:78   */\n      dup2\n        /* \"#utility.yul\":62:78   */\n      swap1\n      pop\n        /* \"#utility.yul\":7:84   */\n      swap2\n      swap1\n      pop\n      jump\t// out\n        /* \"#utility.yul\":90:208   */\n    tag_57:\n        /* \"#utility.yul\":177:201   */\n      tag_83\n        /* \"#utility.yul\":195:200   */\n      dup2\n        /* \"#utility.yul\":177:201   */\n      tag_56\n      jump\t// in\n    tag_83:\n        /* \"#utility.yul\":172:175   */\n      dup3\n        /* \"#utility.yul\":165:202   */\n      mstore\n        /* \"#utility.yul\":90:208   */\n      pop\n      pop\n      jump\t// out\n        /* \"#utility.yul\":214:436   */\n    tag_11:\n        /* \"#utility.yul\":307:311   */\n      0x00\n        /* \"#utility.yul\":345:347   */\n      0x20\n        /* \"#utility.yul\":334:343   */\n      dup3\n        /* \"#utility.yul\":330:348   */\n      add\n        /* \"#utility.yul\":322:348   */\n      swap1\n      pop\n        /* \"#utility.yul\":358:429   */\n      tag_85\n        /* \"#utility.yul\":426:427   */\n      0x00\n        /* \"#utility.yul\":415:424   */\n      dup4\n        /* \"#utility.yul\":411:428   */\n      add\n        /* \"#utility.yul\":402:408   */\n      dup5\n        /* \"#utility.yul\":358:429   */\n      tag_57\n      jump\t// in\n    tag_85:\n        /* \"#utility.yul\":214:436   */\n      swap3\n      swap2\n      pop\n      pop\n      jump\t// out\n        /* \"#utility.yul\":523:640   */\n    tag_59:\n        /* \"#utility.yul\":632:633   */\n      0x00\n        /* \"#utility.yul\":629:630   */\n      0x00\n        /* \"#utility.yul\":622:634   */\n      revert\n        /* \"#utility.yul\":769:895   */\n    tag_61:\n        /* \"#utility.yul\":806:813   */\n      0x00\n        /* \"#utility.yul\":846:888   */\n      0xffffffffffffffffffffffffffffffffffffffff\n        /* \"#utility.yul\":839:844   */\n      dup3\n        /* \"#utility.yul\":835:889   */\n      and\n        /* \"#utility.yul\":824:889   */\n      swap1\n      pop\n        /* \"#utility.yul\":769:895   */\n      swap2\n      swap1\n      pop\n      jump\t// out\n        /* \"#utility.yul\":901:997   */\n    tag_62:\n        /* \"#utility.yul\":938:945   */\n      0x00\n        /* \"#utility.yul\":967:991   */\n      tag_91\n        /* \"#utility.yul\":985:990   */\n      dup3\n        /* \"#utility.yul\":967:991   */\n      tag_61\n      jump\t// in\n    tag_91:\n        /* \"#utility.yul\":956:991   */\n      swap1\n      pop\n        /* \"#utility.yul\":901:997   */\n      swap2\n      swap1\n      pop\n      jump\t// out\n        /* \"#utility.yul\":1003:1125   */\n    tag_63:\n        /* \"#utility.yul\":1076:1100   */\n      tag_93\n        /* \"#utility.yul\":1094:1099   */\n      dup2\n        /* \"#utility.yul\":1076:1100   */\n      tag_62\n      jump\t// in\n    tag_93:\n        /* \"#utility.yul\":1069:1074   */\n      dup2\n        /* \"#utility.yul\":1066:1101   */\n      eq\n        /* \"#utility.yul\":1056:1119   */\n      tag_94\n      jumpi\n        /* \"#utility.yul\":1115:1116   */\n      0x00\n        /* \"#utility.yul\":1112:1113   */\n      0x00\n        /* \"#utility.yul\":1105:1117   */\n      revert\n        /* \"#utility.yul\":1056:1119   */\n    tag_94:\n        /* \"#utility.yul\":1003:1125   */\n      pop\n      jump\t// out\n        /* \"#utility.yul\":1131:1270   */\n    tag_64:\n        /* \"#utility.yul\":1177:1182   */\n      0x00\n        /* \"#utility.yul\":1215:1221   */\n      dup2\n        /* \"#utility.yul\":1202:1222   */\n      calldataload\n        /* \"#utility.yul\":1193:1222   */\n      swap1\n      pop\n        /* \"#utility.yul\":1231:1264   */\n      tag_96\n        /* \"#utility.yul\":1258:1263   */\n      dup2\n        /* \"#utility.yul\":1231:1264   */\n      tag_63\n      jump\t// in\n    tag_96:\n        /* \"#utility.yul\":1131:1270   */\n      swap3\n      swap2\n      pop\n      pop\n      jump\t// out\n        /* \"#utility.yul\":1276:1605   */\n    tag_18:\n        /* \"#utility.yul\":1335:1341   */\n      0x00\n        /* \"#utility.yul\":1384:1386   */\n      0x20\n        /* \"#utility.yul\":1372:1381   */\n      dup3\n        /* \"#utility.yul\":1363:1370   */\n      dup5\n        /* \"#utility.yul\":1359:1382   */\n      sub\n        /* \"#utility.yul\":1355:1387   */\n      slt\n        /* \"#utility.yul\":1352:1471   */\n      iszero\n      tag_98\n      jumpi\n        /* \"#utility.yul\":1390:1469   */\n      tag_99\n      tag_59\n      jump\t// in\n    tag_99:\n        /* \"#utility.yul\":1352:1471   */\n    tag_98:\n        /* \"#utility.yul\":1510:1511   */\n      0x00\n        /* \"#utility.yul\":1535:1588   */\n      tag_100\n        /* \"#utility.yul\":1580:1587   */\n      dup5\n        /* \"#utility.yul\":1571:1577   */\n      dup3\n        /* \"#utility.yul\":1560:1569   */\n      dup6\n        /* \"#utility.yul\":1556:1578   */\n      add\n        /* \"#utility.yul\":1535:1588   */\n      tag_64\n      jump\t// in\n    tag_100:\n        /* \"#utility.yul\":1525:1588   */\n      swap2\n      pop\n        /* \"#utility.yul\":1481:1598   */\n      pop\n        /* \"#utility.yul\":1276:1605   */\n      swap3\n      swap2\n      pop\n      pop\n      jump\t// out\n        /* \"#utility.yul\":1611:1733   */\n    tag_65:\n        /* \"#utility.yul\":1684:1708   */\n      tag_102\n        /* \"#utility.yul\":1702:1707   */\n      dup2\n        /* \"#utility.yul\":1684:1708   */\n      tag_56\n      jump\t// in\n    tag_102:\n        /* \"#utility.yul\":1677:1682   */\n      dup2\n        /* \"#utility.yul\":1674:1709   */\n      eq\n        /* \"#utility.yul\":1664:1727   */\n      tag_103\n      jumpi\n        /* \"#utility.yul\":1723:1724   */\n      0x00\n        /* \"#utility.yul\":1720:1721   */\n      0x00\n        /* \"#utility.yul\":1713:1725   */\n      revert\n        /* \"#utility.yul\":1664:1727   */\n    tag_103:\n        /* \"#utility.yul\":1611:1733   */\n      pop\n      jump\t// out\n        /* \"#utility.yul\":1739:1878   */\n    tag_66:\n        /* \"#utility.yul\":1785:1790   */\n      0x00\n        /* \"#utility.yul\":1823:1829   */\n      dup2\n        /* \"#utility.yul\":1810:1830   */\n      calldataload\n        /* \"#utility.yul\":1801:1830   */\n      swap1\n      pop\n        /* \"#utility.yul\":1839:1872   */\n      tag_105\n        /* \"#utility.yul\":1866:1871   */\n      dup2\n        /* \"#utility.yul\":1839:1872   */\n      tag_65\n      jump\t// in\n    tag_105:\n        /* \"#utility.yul\":1739:1878   */\n      swap3\n      swap2\n      pop\n      pop\n      jump\t// out\n        /* \"#utility.yul\":1884:2213   */\n    tag_26:\n        /* \"#utility.yul\":1943:1949   */\n      0x00\n        /* \"#utility.yul\":1992:1994   */\n      0x20\n        /* \"#utility.yul\":1980:1989   */\n      dup3\n        /* \"#utility.yul\":1971:1978   */\n      dup5\n        /* \"#utility.yul\":1967:1990   */\n      sub\n        /* \"#utility.yul\":1963:1995   */\n      slt\n        /* \"#utility.yul\":1960:2079   */\n      iszero\n      tag_107\n      jumpi\n        /* \"#utility.yul\":1998:2077   */\n      tag_108\n      tag_59\n      jump\t// in\n    tag_108:\n        /* \"#utility.yul\":1960:2079   */\n    tag_107:\n        /* \"#utility.yul\":2118:2119   */\n      0x00\n        /* \"#utility.yul\":2143:2196   */\n      tag_109\n        /* \"#utility.yul\":2188:2195   */\n      dup5\n        /* \"#utility.yul\":2179:2185   */\n      dup3\n        /* \"#utility.yul\":2168:2177   */\n      dup6\n        /* \"#utility.yul\":2164:2186   */\n      add\n        /* \"#utility.yul\":2143:2196   */\n      tag_66\n      jump\t// in\n    tag_109:\n        /* \"#utility.yul\":2133:2196   */\n      swap2\n      pop\n        /* \"#utility.yul\":2089:2206   */\n      pop\n        /* \"#utility.yul\":1884:2213   */\n      swap3\n      swap2\n      pop\n      pop\n      jump\t// out\n        /* \"#utility.yul\":2219:2337   */\n    tag_67:\n        /* \"#utility.yul\":2306:2330   */\n      tag_111\n        /* \"#utility.yul\":2324:2329   */\n      dup2\n        /* \"#utility.yul\":2306:2330   */\n      tag_62\n      jump\t// in\n    tag_111:\n        /* \"#utility.yul\":2301:2304   */\n      dup3\n        /* \"#utility.yul\":2294:2331   */\n      mstore\n        /* \"#utility.yul\":2219:2337   */\n      pop\n      pop\n      jump\t// out\n        /* \"#utility.yul\":2343:2565   */\n    tag_29:\n        /* \"#utility.yul\":2436:2440   */\n      0x00\n        /* \"#utility.yul\":2474:2476   */\n      0x20\n        /* \"#utility.yul\":2463:2472   */\n      dup3\n        /* \"#utility.yul\":2459:2477   */\n      add\n        /* \"#utility.yul\":2451:2477   */\n      swap1\n      pop\n        /* \"#utility.yul\":2487:2558   */\n      tag_113\n        /* \"#utility.yul\":2555:2556   */\n      0x00\n        /* \"#utility.yul\":2544:2553   */\n      dup4\n        /* \"#utility.yul\":2540:2557   */\n      add\n        /* \"#utility.yul\":2531:2537   */\n      dup5\n        /* \"#utility.yul\":2487:2558   */\n      tag_67\n      jump\t// in\n    tag_113:\n        /* \"#utility.yul\":2343:2565   */\n      swap3\n      swap2\n      pop\n      pop\n      jump\t// out\n        /* \"#utility.yul\":2571:2740   */\n    tag_68:\n        /* \"#utility.yul\":2655:2666   */\n      0x00\n        /* \"#utility.yul\":2689:2695   */\n      dup3\n        /* \"#utility.yul\":2684:2687   */\n      dup3\n        /* \"#utility.yul\":2677:2696   */\n      mstore\n        /* \"#utility.yul\":2729:2733   */\n      0x20\n        /* \"#utility.yul\":2724:2727   */\n      dup3\n        /* \"#utility.yul\":2720:2734   */\n      add\n        /* \"#utility.yul\":2705:2734   */\n      swap1\n      pop\n        /* \"#utility.yul\":2571:2740   */\n      swap3\n      swap2\n      pop\n      pop\n      jump\t// out\n        /* \"#utility.yul\":2746:2917   */\n    tag_69:\n        /* \"#utility.yul\":2886:2909   */\n      0x6469646e742073656e6420656e6f756768206574680000000000000000000000\n        /* \"#utility.yul\":2882:2883   */\n      0x00\n        /* \"#utility.yul\":2874:2880   */\n      dup3\n        /* \"#utility.yul\":2870:2884   */\n      add\n        /* \"#utility.yul\":2863:2910   */\n      mstore\n        /* \"#utility.yul\":2746:2917   */\n      pop\n      jump\t// out\n        /* \"#utility.yul\":2923:3289   */\n    tag_70:\n        /* \"#utility.yul\":3065:3068   */\n      0x00\n        /* \"#utility.yul\":3086:3153   */\n      tag_117\n        /* \"#utility.yul\":3150:3152   */\n      0x15\n        /* \"#utility.yul\":3145:3148   */\n      dup4\n        /* \"#utility.yul\":3086:3153   */\n      tag_68\n      jump\t// in\n    tag_117:\n        /* \"#utility.yul\":3079:3153   */\n      swap2\n      pop\n        /* \"#utility.yul\":3162:3255   */\n      tag_118\n        /* \"#utility.yul\":3251:3254   */\n      dup3\n        /* \"#utility.yul\":3162:3255   */\n      tag_69\n      jump\t// in\n    tag_118:\n        /* \"#utility.yul\":3280:3282   */\n      0x20\n        /* \"#utility.yul\":3275:3278   */\n      dup3\n        /* \"#utility.yul\":3271:3283   */\n      add\n        /* \"#utility.yul\":3264:3283   */\n      swap1\n      pop\n        /* \"#utility.yul\":2923:3289   */\n      swap2\n      swap1\n      pop\n      jump\t// out\n        /* \"#utility.yul\":3295:3714   */\n    tag_36:\n        /* \"#utility.yul\":3461:3465   */\n      0x00\n        /* \"#utility.yul\":3499:3501   */\n      0x20\n        /* \"#utility.yul\":3488:3497   */\n      dup3\n        /* \"#utility.yul\":3484:3502   */\n      add\n        /* \"#utility.yul\":3476:3502   */\n      swap1\n      pop\n        /* \"#utility.yul\":3548:3557   */\n      dup2\n        /* \"#utility.yul\":3542:3546   */\n      dup2\n        /* \"#utility.yul\":3538:3558   */\n      sub\n        /* \"#utility.yul\":3534:3535   */\n      0x00\n        /* \"#utility.yul\":3523:3532   */\n      dup4\n        /* \"#utility.yul\":3519:3536   */\n      add\n        /* \"#utility.yul\":3512:3559   */\n      mstore\n        /* \"#utility.yul\":3576:3707   */\n      tag_120\n        /* \"#utility.yul\":3702:3706   */\n      dup2\n        /* \"#utility.yul\":3576:3707   */\n      tag_70\n      jump\t// in\n    tag_120:\n        /* \"#utility.yul\":3568:3707   */\n      swap1\n      pop\n        /* \"#utility.yul\":3295:3714   */\n      swap2\n      swap1\n      pop\n      jump\t// out\n        /* \"#utility.yul\":3720:3900   */\n    tag_71:\n        /* \"#utility.yul\":3768:3845   */\n      0x4e487b7100000000000000000000000000000000000000000000000000000000\n        /* \"#utility.yul\":3765:3766   */\n      0x00\n        /* \"#utility.yul\":3758:3846   */\n      mstore\n        /* \"#utility.yul\":3865:3869   */\n      0x11\n        /* \"#utility.yul\":3862:3863   */\n      0x04\n        /* \"#utility.yul\":3855:3870   */\n      mstore\n        /* \"#utility.yul\":3889:3893   */\n      0x24\n        /* \"#utility.yul\":3886:3887   */\n      0x00\n        /* \"#utility.yul\":3879:3894   */\n      revert\n        /* \"#utility.yul\":3906:4097   */\n    tag_39:\n        /* \"#utility.yul\":3946:3949   */\n      0x00\n        /* \"#utility.yul\":3965:3985   */\n      tag_123\n        /* \"#utility.yul\":3983:3984   */\n      dup3\n        /* \"#utility.yul\":3965:3985   */\n      tag_56\n      jump\t// in\n    tag_123:\n        /* \"#utility.yul\":3960:3985   */\n      swap2\n      pop\n        /* \"#utility.yul\":3999:4019   */\n      tag_124\n        /* \"#utility.yul\":4017:4018   */\n      dup4\n        /* \"#utility.yul\":3999:4019   */\n      tag_56\n      jump\t// in\n    tag_124:\n        /* \"#utility.yul\":3994:4019   */\n      swap3\n      pop\n        /* \"#utility.yul\":4042:4043   */\n      dup3\n        /* \"#utility.yul\":4039:4040   */\n      dup3\n        /* \"#utility.yul\":4035:4044   */\n      add\n        /* \"#utility.yul\":4028:4044   */\n      swap1\n      pop\n        /* \"#utility.yul\":4063:4066   */\n      dup1\n        /* \"#utility.yul\":4060:4061   */\n      dup3\n        /* \"#utility.yul\":4057:4067   */\n      gt\n        /* \"#utility.yul\":4054:4090   */\n      iszero\n      tag_125\n      jumpi\n        /* \"#utility.yul\":4070:4088   */\n      tag_126\n      tag_71\n      jump\t// in\n    tag_126:\n        /* \"#utility.yul\":4054:4090   */\n    tag_125:\n        /* \"#utility.yul\":3906:4097   */\n      swap3\n      swap2\n      pop\n      pop\n      jump\t// out\n        /* \"#utility.yul\":4103:4513   */\n    tag_46:\n        /* \"#utility.yul\":4143:4150   */\n      0x00\n        /* \"#utility.yul\":4166:4186   */\n      tag_128\n        /* \"#utility.yul\":4184:4185   */\n      dup3\n        /* \"#utility.yul\":4166:4186   */\n      tag_56\n      jump\t// in\n    tag_128:\n        /* \"#utility.yul\":4161:4186   */\n      swap2\n      pop\n        /* \"#utility.yul\":4200:4220   */\n      tag_129\n        /* \"#utility.yul\":4218:4219   */\n      dup4\n        /* \"#utility.yul\":4200:4220   */\n      tag_56\n      jump\t// in\n    tag_129:\n        /* \"#utility.yul\":4195:4220   */\n      swap3\n      pop\n        /* \"#utility.yul\":4255:4256   */\n      dup3\n        /* \"#utility.yul\":4252:4253   */\n      dup3\n        /* \"#utility.yul\":4248:4257   */\n      mul\n        /* \"#utility.yul\":4277:4307   */\n      tag_130\n        /* \"#utility.yul\":4295:4306   */\n      dup2\n        /* \"#utility.yul\":4277:4307   */\n      tag_56\n      jump\t// in\n    tag_130:\n        /* \"#utility.yul\":4266:4307   */\n      swap2\n      pop\n        /* \"#utility.yul\":4456:4457   */\n      dup3\n        /* \"#utility.yul\":4447:4454   */\n      dup3\n        /* \"#utility.yul\":4443:4458   */\n      div\n        /* \"#utility.yul\":4440:4441   */\n      dup5\n        /* \"#utility.yul\":4437:4459   */\n      eq\n        /* \"#utility.yul\":4417:4418   */\n      dup4\n        /* \"#utility.yul\":4410:4419   */\n      iszero\n        /* \"#utility.yul\":4390:4473   */\n      or\n        /* \"#utility.yul\":4367:4506   */\n      tag_131\n      jumpi\n        /* \"#utility.yul\":4486:4504   */\n      tag_132\n      tag_71\n      jump\t// in\n    tag_132:\n        /* \"#utility.yul\":4367:4506   */\n    tag_131:\n        /* \"#utility.yul\":4151:4513   */\n      pop\n        /* \"#utility.yul\":4103:4513   */\n      swap3\n      swap2\n      pop\n      pop\n      jump\t// out\n        /* \"#utility.yul\":4519:4699   */\n    tag_72:\n        /* \"#utility.yul\":4567:4644   */\n      0x4e487b7100000000000000000000000000000000000000000000000000000000\n        /* \"#utility.yul\":4564:4565   */\n      0x00\n        /* \"#utility.yul\":4557:4645   */\n      mstore\n        /* \"#utility.yul\":4664:4668   */\n      0x12\n        /* \"#utility.yul\":4661:4662   */\n      0x04\n        /* \"#utility.yul\":4654:4669   */\n      mstore\n        /* \"#utility.yul\":4688:4692   */\n      0x24\n        /* \"#utility.yul\":4685:4686   */\n      0x00\n        /* \"#utility.yul\":4678:4693   */\n      revert\n        /* \"#utility.yul\":4705:4890   */\n    tag_48:\n        /* \"#utility.yul\":4745:4746   */\n      0x00\n        /* \"#utility.yul\":4762:4782   */\n      tag_135\n        /* \"#utility.yul\":4780:4781   */\n      dup3\n        /* \"#utility.yul\":4762:4782   */\n      tag_56\n      jump\t// in\n    tag_135:\n        /* \"#utility.yul\":4757:4782   */\n      swap2\n      pop\n        /* \"#utility.yul\":4796:4816   */\n      tag_136\n        /* \"#utility.yul\":4814:4815   */\n      dup4\n        /* \"#utility.yul\":4796:4816   */\n      tag_56\n      jump\t// in\n    tag_136:\n        /* \"#utility.yul\":4791:4816   */\n      swap3\n      pop\n        /* \"#utility.yul\":4835:4836   */\n      dup3\n        /* \"#utility.yul\":4825:4860   */\n      tag_137\n      jumpi\n        /* \"#utility.yul\":4840:4858   */\n      tag_138\n      tag_72\n      jump\t// in\n    tag_138:\n        /* \"#utility.yul\":4825:4860   */\n    tag_137:\n        /* \"#utility.yul\":4882:4883   */\n      dup3\n        /* \"#utility.yul\":4879:4880   */\n      dup3\n        /* \"#utility.yul\":4875:4884   */\n      div\n        /* \"#utility.yul\":4870:4884   */\n      swap1\n      pop\n        /* \"#utility.yul\":4705:4890   */\n      swap3\n      swap2\n      pop\n      pop\n      jump\t// out\n        /* \"#utility.yul\":4896:5001   */\n    tag_73:\n        /* \"#utility.yul\":4932:4939   */\n      0x00\n        /* \"#utility.yul\":4972:4994   */\n      0xffffffffffffffffffff\n        /* \"#utility.yul\":4965:4970   */\n      dup3\n        /* \"#utility.yul\":4961:4995   */\n      and\n        /* \"#utility.yul\":4950:4995   */\n      swap1\n      pop\n        /* \"#utility.yul\":4896:5001   */\n      swap2\n      swap1\n      pop\n      jump\t// out\n        /* \"#utility.yul\":5007:5127   */\n    tag_74:\n        /* \"#utility.yul\":5079:5102   */\n      tag_141\n        /* \"#utility.yul\":5096:5101   */\n      dup2\n        /* \"#utility.yul\":5079:5102   */\n      tag_73\n      jump\t// in\n    tag_141:\n        /* \"#utility.yul\":5072:5077   */\n      dup2\n        /* \"#utility.yul\":5069:5103   */\n      eq\n        /* \"#utility.yul\":5059:5121   */\n      tag_142\n      jumpi\n        /* \"#utility.yul\":5117:5118   */\n      0x00\n        /* \"#utility.yul\":5114:5115   */\n      0x00\n        /* \"#utility.yul\":5107:5119   */\n      revert\n        /* \"#utility.yul\":5059:5121   */\n    tag_142:\n        /* \"#utility.yul\":5007:5127   */\n      pop\n      jump\t// out\n        /* \"#utility.yul\":5133:5274   */\n    tag_75:\n        /* \"#utility.yul\":5189:5194   */\n      0x00\n        /* \"#utility.yul\":5220:5226   */\n      dup2\n        /* \"#utility.yul\":5214:5227   */\n      mload\n        /* \"#utility.yul\":5205:5227   */\n      swap1\n      pop\n        /* \"#utility.yul\":5236:5268   */\n      tag_144\n        /* \"#utility.yul\":5262:5267   */\n      dup2\n        /* \"#utility.yul\":5236:5268   */\n      tag_74\n      jump\t// in\n    tag_144:\n        /* \"#utility.yul\":5133:5274   */\n      swap3\n      swap2\n      pop\n      pop\n      jump\t// out\n        /* \"#utility.yul\":5280:5356   */\n    tag_76:\n        /* \"#utility.yul\":5316:5323   */\n      0x00\n        /* \"#utility.yul\":5345:5350   */\n      dup2\n        /* \"#utility.yul\":5334:5350   */\n      swap1\n      pop\n        /* \"#utility.yul\":5280:5356   */\n      swap2\n      swap1\n      pop\n      jump\t// out\n        /* \"#utility.yul\":5362:5482   */\n    tag_77:\n        /* \"#utility.yul\":5434:5457   */\n      tag_147\n        /* \"#utility.yul\":5451:5456   */\n      dup2\n        /* \"#utility.yul\":5434:5457   */\n      tag_76\n      jump\t// in\n    tag_147:\n        /* \"#utility.yul\":5427:5432   */\n      dup2\n        /* \"#utility.yul\":5424:5458   */\n      eq\n        /* \"#utility.yul\":5414:5476   */\n      tag_148\n      jumpi\n        /* \"#utility.yul\":5472:5473   */\n      0x00\n        /* \"#utility.yul\":5469:5470   */\n      0x00\n        /* \"#utility.yul\":5462:5474   */\n      revert\n        /* \"#utility.yul\":5414:5476   */\n    tag_148:\n        /* \"#utility.yul\":5362:5482   */\n      pop\n      jump\t// out\n        /* \"#utility.yul\":5488:5629   */\n    tag_78:\n        /* \"#utility.yul\":5544:5549   */\n      0x00\n        /* \"#utility.yul\":5575:5581   */\n      dup2\n        /* \"#utility.yul\":5569:5582   */\n      mload\n        /* \"#utility.yul\":5560:5582   */\n      swap1\n      pop\n        /* \"#utility.yul\":5591:5623   */\n      tag_150\n        /* \"#utility.yul\":5617:5622   */\n      dup2\n        /* \"#utility.yul\":5591:5623   */\n      tag_77\n      jump\t// in\n    tag_150:\n        /* \"#utility.yul\":5488:5629   */\n      swap3\n      swap2\n      pop\n      pop\n      jump\t// out\n        /* \"#utility.yul\":5635:5778   */\n    tag_79:\n        /* \"#utility.yul\":5692:5697   */\n      0x00\n        /* \"#utility.yul\":5723:5729   */\n      dup2\n        /* \"#utility.yul\":5717:5730   */\n      mload\n        /* \"#utility.yul\":5708:5730   */\n      swap1\n      pop\n        /* \"#utility.yul\":5739:5772   */\n      tag_152\n        /* \"#utility.yul\":5766:5771   */\n      dup2\n        /* \"#utility.yul\":5739:5772   */\n      tag_65\n      jump\t// in\n    tag_152:\n        /* \"#utility.yul\":5635:5778   */\n      swap3\n      swap2\n      pop\n      pop\n      jump\t// out\n        /* \"#utility.yul\":5784:6755   */\n    tag_53:\n        /* \"#utility.yul\":5887:5893   */\n      0x00\n        /* \"#utility.yul\":5895:5901   */\n      0x00\n        /* \"#utility.yul\":5903:5909   */\n      0x00\n        /* \"#utility.yul\":5911:5917   */\n      0x00\n        /* \"#utility.yul\":5919:5925   */\n      0x00\n        /* \"#utility.yul\":5968:5971   */\n      0xa0\n        /* \"#utility.yul\":5956:5965   */\n      dup7\n        /* \"#utility.yul\":5947:5954   */\n      dup9\n        /* \"#utility.yul\":5943:5966   */\n      sub\n        /* \"#utility.yul\":5939:5972   */\n      slt\n        /* \"#utility.yul\":5936:6056   */\n      iszero\n      tag_154\n      jumpi\n        /* \"#utility.yul\":5975:6054   */\n      tag_155\n      tag_59\n      jump\t// in\n    tag_155:\n        /* \"#utility.yul\":5936:6056   */\n    tag_154:\n        /* \"#utility.yul\":6095:6096   */\n      0x00\n        /* \"#utility.yul\":6120:6183   */\n      tag_156\n        /* \"#utility.yul\":6175:6182   */\n      dup9\n        /* \"#utility.yul\":6166:6172   */\n      dup3\n        /* \"#utility.yul\":6155:6164   */\n      dup10\n        /* \"#utility.yul\":6151:6173   */\n      add\n        /* \"#utility.yul\":6120:6183   */\n      tag_75\n      jump\t// in\n    tag_156:\n        /* \"#utility.yul\":6110:6183   */\n      swap6\n      pop\n        /* \"#utility.yul\":6066:6193   */\n      pop\n        /* \"#utility.yul\":6232:6234   */\n      0x20\n        /* \"#utility.yul\":6258:6321   */\n      tag_157\n        /* \"#utility.yul\":6313:6320   */\n      dup9\n        /* \"#utility.yul\":6304:6310   */\n      dup3\n        /* \"#utility.yul\":6293:6302   */\n      dup10\n        /* \"#utility.yul\":6289:6311   */\n      add\n        /* \"#utility.yul\":6258:6321   */\n      tag_78\n      jump\t// in\n    tag_157:\n        /* \"#utility.yul\":6248:6321   */\n      swap5\n      pop\n        /* \"#utility.yul\":6203:6331   */\n      pop\n        /* \"#utility.yul\":6370:6372   */\n      0x40\n        /* \"#utility.yul\":6396:6460   */\n      tag_158\n        /* \"#utility.yul\":6452:6459   */\n      dup9\n        /* \"#utility.yul\":6443:6449   */\n      dup3\n        /* \"#utility.yul\":6432:6441   */\n      dup10\n        /* \"#utility.yul\":6428:6450   */\n      add\n        /* \"#utility.yul\":6396:6460   */\n      tag_79\n      jump\t// in\n    tag_158:\n        /* \"#utility.yul\":6386:6460   */\n      swap4\n      pop\n        /* \"#utility.yul\":6341:6470   */\n      pop\n        /* \"#utility.yul\":6509:6511   */\n      0x60\n        /* \"#utility.yul\":6535:6599   */\n      tag_159\n        /* \"#utility.yul\":6591:6598   */\n      dup9\n        /* \"#utility.yul\":6582:6588   */\n      dup3\n        /* \"#utility.yul\":6571:6580   */\n      dup10\n        /* \"#utility.yul\":6567:6589   */\n      add\n        /* \"#utility.yul\":6535:6599   */\n      tag_79\n      jump\t// in\n    tag_159:\n        /* \"#utility.yul\":6525:6599   */\n      swap3\n      pop\n        /* \"#utility.yul\":6480:6609   */\n      pop\n        /* \"#utility.yul\":6648:6651   */\n      0x80\n        /* \"#utility.yul\":6675:6738   */\n      tag_160\n        /* \"#utility.yul\":6730:6737   */\n      dup9\n        /* \"#utility.yul\":6721:6727   */\n      dup3\n        /* \"#utility.yul\":6710:6719   */\n      dup10\n        /* \"#utility.yul\":6706:6728   */\n      add\n        /* \"#utility.yul\":6675:6738   */\n      tag_75\n      jump\t// in\n    tag_160:\n        /* \"#utility.yul\":6665:6738   */\n      swap2\n      pop\n        /* \"#utility.yul\":6619:6748   */\n      pop\n        /* \"#utility.yul\":5784:6755   */\n      swap3\n      swap6\n      pop\n      swap3\n      swap6\n      swap1\n      swap4\n      pop\n      jump\t// out\n        /* \"#utility.yul\":6761:7317   */\n    tag_55:\n        /* \"#utility.yul\":6800:6807   */\n      0x00\n        /* \"#utility.yul\":6823:6842   */\n      tag_162\n        /* \"#utility.yul\":6840:6841   */\n      dup3\n        /* \"#utility.yul\":6823:6842   */\n      tag_76\n      jump\t// in\n    tag_162:\n        /* \"#utility.yul\":6818:6842   */\n      swap2\n      pop\n        /* \"#utility.yul\":6856:6875   */\n      tag_163\n        /* \"#utility.yul\":6873:6874   */\n      dup4\n        /* \"#utility.yul\":6856:6875   */\n      tag_76\n      jump\t// in\n    tag_163:\n        /* \"#utility.yul\":6851:6875   */\n      swap3\n      pop\n        /* \"#utility.yul\":6910:6911   */\n      dup3\n        /* \"#utility.yul\":6907:6908   */\n      dup3\n        /* \"#utility.yul\":6903:6912   */\n      mul\n        /* \"#utility.yul\":6932:6961   */\n      tag_164\n        /* \"#utility.yul\":6949:6960   */\n      dup2\n        /* \"#utility.yul\":6932:6961   */\n      tag_76\n      jump\t// in\n    tag_164:\n        /* \"#utility.yul\":6921:6961   */\n      swap2\n      pop\n        /* \"#utility.yul\":7019:7085   */\n      0x8000000000000000000000000000000000000000000000000000000000000000\n        /* \"#utility.yul\":7016:7017   */\n      dup5\n        /* \"#utility.yul\":7013:7086   */\n      eq\n        /* \"#utility.yul\":7009:7010   */\n      0x00\n        /* \"#utility.yul\":7006:7007   */\n      dup5\n        /* \"#utility.yul\":7002:7011   */\n      slt\n        /* \"#utility.yul\":6998:7087   */\n      and\n        /* \"#utility.yul\":6995:7110   */\n      iszero\n      tag_165\n      jumpi\n        /* \"#utility.yul\":7090:7108   */\n      tag_166\n      tag_71\n      jump\t// in\n    tag_166:\n        /* \"#utility.yul\":6995:7110   */\n    tag_165:\n        /* \"#utility.yul\":7260:7261   */\n      dup3\n        /* \"#utility.yul\":7251:7258   */\n      dup3\n        /* \"#utility.yul\":7246:7262   */\n      sdiv\n        /* \"#utility.yul\":7243:7244   */\n      dup5\n        /* \"#utility.yul\":7240:7263   */\n      eq\n        /* \"#utility.yul\":7220:7221   */\n      dup4\n        /* \"#utility.yul\":7213:7222   */\n      iszero\n        /* \"#utility.yul\":7193:7277   */\n      or\n        /* \"#utility.yul\":7170:7310   */\n      tag_167\n      jumpi\n        /* \"#utility.yul\":7290:7308   */\n      tag_168\n      tag_71\n      jump\t// in\n    tag_168:\n        /* \"#utility.yul\":7170:7310   */\n    tag_167:\n        /* \"#utility.yul\":6808:7317   */\n      pop\n        /* \"#utility.yul\":6761:7317   */\n      swap3\n      swap2\n      pop\n      pop\n      jump\t// out\n\n    auxdata: 0xa2646970667358221220c226d81de0ef714f9ad200a1547f38707220a8e13acc6fcaa8eff6dbed91479564736f6c634300081e0033\n}\n",
				"bytecode": {
					"linkReferences": {},
					"object": "6080604052674563918244f400005f553480156019575f5ffd5b5061079a806100275f395ff3fe608060405260043610610049575f3560e01c8063098de8201461004d5780633ccfd60b146100775780633e47d6f31461008d578063b60d4288146100c9578063dc0d3dff146100d3575b5f5ffd5b348015610058575f5ffd5b5061006161010f565b60405161006e919061035c565b60405180910390f35b348015610082575f5ffd5b5061008b610114565b005b348015610098575f5ffd5b506100b360048036038101906100ae91906103d3565b610116565b6040516100c0919061035c565b60405180910390f35b6100d161012b565b005b3480156100de575f5ffd5b506100f960048036038101906100f49190610428565b61022c565b6040516101069190610462565b60405180910390f35b5f5481565b565b6002602052805f5260405f205f915090505481565b5f5461013634610267565b1015610177576040517f08c379a000000000000000000000000000000000000000000000000000000000815260040161016e906104d5565b60405180910390fd5b600133908060018154018082558091505060019003905f5260205f20015f9091909190916101000a81548173ffffffffffffffffffffffffffffffffffffffff021916908373ffffffffffffffffffffffffffffffffffffffff1602179055503460025f3373ffffffffffffffffffffffffffffffffffffffff1673ffffffffffffffffffffffffffffffffffffffff1681526020019081526020015f205f8282546102239190610520565b92505081905550565b6001818154811061023b575f80fd5b905f5260205f20015f915054906101000a900473ffffffffffffffffffffffffffffffffffffffff1681565b5f5f61027161029f565b90505f670de0b6b3a764000084836102899190610553565b61029391906105c1565b90508092505050919050565b5f5f73694aa1769357215de4fac081bf1f309adc32530690505f8173ffffffffffffffffffffffffffffffffffffffff1663feaf968c6040518163ffffffff1660e01b815260040160a060405180830381865afa158015610302573d5f5f3e3d5ffd5b505050506040513d601f19601f820116820180604052508101906103269190610677565b5050509150506402540be4008161033d91906106ee565b9250505090565b5f819050919050565b61035681610344565b82525050565b5f60208201905061036f5f83018461034d565b92915050565b5f5ffd5b5f73ffffffffffffffffffffffffffffffffffffffff82169050919050565b5f6103a282610379565b9050919050565b6103b281610398565b81146103bc575f5ffd5b50565b5f813590506103cd816103a9565b92915050565b5f602082840312156103e8576103e7610375565b5b5f6103f5848285016103bf565b91505092915050565b61040781610344565b8114610411575f5ffd5b50565b5f81359050610422816103fe565b92915050565b5f6020828403121561043d5761043c610375565b5b5f61044a84828501610414565b91505092915050565b61045c81610398565b82525050565b5f6020820190506104755f830184610453565b92915050565b5f82825260208201905092915050565b7f6469646e742073656e6420656e6f7567682065746800000000000000000000005f82015250565b5f6104bf60158361047b565b91506104ca8261048b565b602082019050919050565b5f6020820190508181035f8301526104ec816104b3565b9050919050565b7f4e487b71000000000000000000000000000000000000000000000000000000005f52601160045260245ffd5b5f61052a82610344565b915061053583610344565b925082820190508082111561054d5761054c6104f3565b5b92915050565b5f61055d82610344565b915061056883610344565b925082820261057681610344565b9150828204841483151761058d5761058c6104f3565b5b5092915050565b7f4e487b71000000000000000000000000000000000000000000000000000000005f52601260045260245ffd5b5f6105cb82610344565b91506105d683610344565b9250826105e6576105e5610594565b5b828204905092915050565b5f69ffffffffffffffffffff82169050919050565b61060f816105f1565b8114610619575f5ffd5b50565b5f8151905061062a81610606565b92915050565b5f819050919050565b61064281610630565b811461064c575f5ffd5b50565b5f8151905061065d81610639565b92915050565b5f81519050610671816103fe565b92915050565b5f5f5f5f5f60a086880312156106905761068f610375565b5b5f61069d8882890161061c565b95505060206106ae8882890161064f565b94505060406106bf88828901610663565b93505060606106d088828901610663565b92505060806106e18882890161061c565b9150509295509295909350565b5f6106f882610630565b915061070383610630565b925082820261071181610630565b91507f800000000000000000000000000000000000000000000000000000000000000084145f84121615610748576107476104f3565b5b828205841483151761075d5761075c6104f3565b5b509291505056fea2646970667358221220c226d81de0ef714f9ad200a1547f38707220a8e13acc6fcaa8eff6dbed91479564736f6c634300081e0033",
					"opcodes": "PUSH1 0x80 PUSH1 0x40 MSTORE PUSH8 0x4563918244F40000 PUSH0 SSTORE CALLVALUE DUP1 ISZERO PUSH1 0x19 JUMPI PUSH0 PUSH0 REVERT JUMPDEST POP PUSH2 0x79A DUP1 PUSH2 0x27 PUSH0 CODECOPY PUSH0 RETURN INVALID PUSH1 0x80 PUSH1 0x40 MSTORE PUSH1 0x4 CALLDATASIZE LT PUSH2 0x49 JUMPI PUSH0 CALLDATALOAD PUSH1 0xE0 SHR DUP1 PUSH4 0x98DE820 EQ PUSH2 0x4D JUMPI DUP1 PUSH4 0x3CCFD60B EQ PUSH2 0x77 JUMPI DUP1 PUSH4 0x3E47D6F3 EQ PUSH2 0x8D JUMPI DUP1 PUSH4 0xB60D4288 EQ PUSH2 0xC9 JUMPI DUP1 PUSH4 0xDC0D3DFF EQ PUSH2 0xD3 JUMPI JUMPDEST PUSH0 PUSH0 REVERT JUMPDEST CALLVALUE DUP1 ISZERO PUSH2 0x58 JUMPI PUSH0 PUSH0 REVERT JUMPDEST POP PUSH2 0x61 PUSH2 0x10F JUMP JUMPDEST PUSH1 0x40 MLOAD PUSH2 0x6E SWAP2 SWAP1 PUSH2 0x35C JUMP JUMPDEST PUSH1 0x40 MLOAD DUP1 SWAP2 SUB SWAP1 RETURN JUMPDEST CALLVALUE DUP1 ISZERO PUSH2 0x82 JUMPI PUSH0 PUSH0 REVERT JUMPDEST POP PUSH2 0x8B PUSH2 0x114 JUMP JUMPDEST STOP JUMPDEST CALLVALUE DUP1 ISZERO PUSH2 0x98 JUMPI PUSH0 PUSH0 REVERT JUMPDEST POP PUSH2 0xB3 PUSH1 0x4 DUP1 CALLDATASIZE SUB DUP2 ADD SWAP1 PUSH2 0xAE SWAP2 SWAP1 PUSH2 0x3D3 JUMP JUMPDEST PUSH2 0x116 JUMP JUMPDEST PUSH1 0x40 MLOAD PUSH2 0xC0 SWAP2 SWAP1 PUSH2 0x35C JUMP JUMPDEST PUSH1 0x40 MLOAD DUP1 SWAP2 SUB SWAP1 RETURN JUMPDEST PUSH2 0xD1 PUSH2 0x12B JUMP JUMPDEST STOP JUMPDEST CALLVALUE DUP1 ISZERO PUSH2 0xDE JUMPI PUSH0 PUSH0 REVERT JUMPDEST POP PUSH2 0xF9 PUSH1 0x4 DUP1 CALLDATASIZE SUB DUP2 ADD SWAP1 PUSH2 0xF4 SWAP2 SWAP1 PUSH2 0x428 JUMP JUMPDEST PUSH2 0x22C JUMP JUMPDEST PUSH1 0x40 MLOAD PUSH2 0x106 SWAP2 SWAP1 PUSH2 0x462 JUMP JUMPDEST PUSH1 0x40 MLOAD DUP1 SWAP2 SUB SWAP1 RETURN JUMPDEST PUSH0 SLOAD DUP2 JUMP JUMPDEST JUMP JUMPDEST PUSH1 0x2 PUSH1 0x20 MSTORE DUP1 PUSH0 MSTORE PUSH1 0x40 PUSH0 KECCAK256 PUSH0 SWAP2 POP SWAP1 POP SLOAD DUP2 JUMP JUMPDEST PUSH0 SLOAD PUSH2 0x136 CALLVALUE PUSH2 0x267 JUMP JUMPDEST LT ISZERO PUSH2 0x177 JUMPI PUSH1 0x40 MLOAD PUSH32 0x8C379A000000000000000000000000000000000000000000000000000000000 DUP2 MSTORE PUSH1 0x4 ADD PUSH2 0x16E SWAP1 PUSH2 0x4D5 JUMP JUMPDEST PUSH1 0x40 MLOAD DUP1 SWAP2 SUB SWAP1 REVERT JUMPDEST PUSH1 0x1 CALLER SWAP1 DUP1 PUSH1 0x1 DUP2 SLOAD ADD DUP1 DUP3 SSTORE DUP1 SWAP2 POP POP PUSH1 0x1 SWAP1 SUB SWAP1 PUSH0 MSTORE PUSH1 0x20 PUSH0 KECCAK256 ADD PUSH0 SWAP1 SWAP2 SWAP1 SWAP2 SWAP1 SWAP2 PUSH2 0x100 EXP DUP2 SLOAD DUP2 PUSH20 0xFFFFFFFFFFFFFFFFFFFFFFFFFFFFFFFFFFFFFFFF MUL NOT AND SWAP1 DUP4 PUSH20 0xFFFFFFFFFFFFFFFFFFFFFFFFFFFFFFFFFFFFFFFF AND MUL OR SWAP1 SSTORE POP CALLVALUE PUSH1 0x2 PUSH0 CALLER PUSH20 0xFFFFFFFFFFFFFFFFFFFFFFFFFFFFFFFFFFFFFFFF AND PUSH20 0xFFFFFFFFFFFFFFFFFFFFFFFFFFFFFFFFFFFFFFFF AND DUP2 MSTORE PUSH1 0x20 ADD SWAP1 DUP2 MSTORE PUSH1 0x20 ADD PUSH0 KECCAK256 PUSH0 DUP3 DUP3 SLOAD PUSH2 0x223 SWAP2 SWAP1 PUSH2 0x520 JUMP JUMPDEST SWAP3 POP POP DUP2 SWAP1 SSTORE POP JUMP JUMPDEST PUSH1 0x1 DUP2 DUP2 SLOAD DUP2 LT PUSH2 0x23B JUMPI PUSH0 DUP1 REVERT JUMPDEST SWAP1 PUSH0 MSTORE PUSH1 0x20 PUSH0 KECCAK256 ADD PUSH0 SWAP2 POP SLOAD SWAP1 PUSH2 0x100 EXP SWAP1 DIV PUSH20 0xFFFFFFFFFFFFFFFFFFFFFFFFFFFFFFFFFFFFFFFF AND DUP2 JUMP JUMPDEST PUSH0 PUSH0 PUSH2 0x271 PUSH2 0x29F JUMP JUMPDEST SWAP1 POP PUSH0 PUSH8 0xDE0B6B3A7640000 DUP5 DUP4 PUSH2 0x289 SWAP2 SWAP1 PUSH2 0x553 JUMP JUMPDEST PUSH2 0x293 SWAP2 SWAP1 PUSH2 0x5C1 JUMP JUMPDEST SWAP1 POP DUP1 SWAP3 POP POP POP SWAP2 SWAP1 POP JUMP JUMPDEST PUSH0 PUSH0 PUSH20 0x694AA1769357215DE4FAC081BF1F309ADC325306 SWAP1 POP PUSH0 DUP2 PUSH20 0xFFFFFFFFFFFFFFFFFFFFFFFFFFFFFFFFFFFFFFFF AND PUSH4 0xFEAF968C PUSH1 0x40 MLOAD DUP2 PUSH4 0xFFFFFFFF AND PUSH1 0xE0 SHL DUP2 MSTORE PUSH1 0x4 ADD PUSH1 0xA0 PUSH1 0x40 MLOAD DUP1 DUP4 SUB DUP2 DUP7 GAS STATICCALL ISZERO DUP1 ISZERO PUSH2 0x302 JUMPI RETURNDATASIZE PUSH0 PUSH0 RETURNDATACOPY RETURNDATASIZE PUSH0 REVERT JUMPDEST POP POP POP POP PUSH1 0x40 MLOAD RETURNDATASIZE PUSH1 0x1F NOT PUSH1 0x1F DUP3 ADD AND DUP3 ADD DUP1 PUSH1 0x40 MSTORE POP DUP2 ADD SWAP1 PUSH2 0x326 SWAP2 SWAP1 PUSH2 0x677 JUMP JUMPDEST POP POP POP SWAP2 POP POP PUSH5 0x2540BE400 DUP2 PUSH2 0x33D SWAP2 SWAP1 PUSH2 0x6EE JUMP JUMPDEST SWAP3 POP POP POP SWAP1 JUMP JUMPDEST PUSH0 DUP2 SWAP1 POP SWAP2 SWAP1 POP JUMP JUMPDEST PUSH2 0x356 DUP2 PUSH2 0x344 JUMP JUMPDEST DUP3 MSTORE POP POP JUMP JUMPDEST PUSH0 PUSH1 0x20 DUP3 ADD SWAP1 POP PUSH2 0x36F PUSH0 DUP4 ADD DUP5 PUSH2 0x34D JUMP JUMPDEST SWAP3 SWAP2 POP POP JUMP JUMPDEST PUSH0 PUSH0 REVERT JUMPDEST PUSH0 PUSH20 0xFFFFFFFFFFFFFFFFFFFFFFFFFFFFFFFFFFFFFFFF DUP3 AND SWAP1 POP SWAP2 SWAP1 POP JUMP JUMPDEST PUSH0 PUSH2 0x3A2 DUP3 PUSH2 0x379 JUMP JUMPDEST SWAP1 POP SWAP2 SWAP1 POP JUMP JUMPDEST PUSH2 0x3B2 DUP2 PUSH2 0x398 JUMP JUMPDEST DUP2 EQ PUSH2 0x3BC JUMPI PUSH0 PUSH0 REVERT JUMPDEST POP JUMP JUMPDEST PUSH0 DUP2 CALLDATALOAD SWAP1 POP PUSH2 0x3CD DUP2 PUSH2 0x3A9 JUMP JUMPDEST SWAP3 SWAP2 POP POP JUMP JUMPDEST PUSH0 PUSH1 0x20 DUP3 DUP5 SUB SLT ISZERO PUSH2 0x3E8 JUMPI PUSH2 0x3E7 PUSH2 0x375 JUMP JUMPDEST JUMPDEST PUSH0 PUSH2 0x3F5 DUP5 DUP3 DUP6 ADD PUSH2 0x3BF JUMP JUMPDEST SWAP2 POP POP SWAP3 SWAP2 POP POP JUMP JUMPDEST PUSH2 0x407 DUP2 PUSH2 0x344 JUMP JUMPDEST DUP2 EQ PUSH2 0x411 JUMPI PUSH0 PUSH0 REVERT JUMPDEST POP JUMP JUMPDEST PUSH0 DUP2 CALLDATALOAD SWAP1 POP PUSH2 0x422 DUP2 PUSH2 0x3FE JUMP JUMPDEST SWAP3 SWAP2 POP POP JUMP JUMPDEST PUSH0 PUSH1 0x20 DUP3 DUP5 SUB SLT ISZERO PUSH2 0x43D JUMPI PUSH2 0x43C PUSH2 0x375 JUMP JUMPDEST JUMPDEST PUSH0 PUSH2 0x44A DUP5 DUP3 DUP6 ADD PUSH2 0x414 JUMP JUMPDEST SWAP2 POP POP SWAP3 SWAP2 POP POP JUMP JUMPDEST PUSH2 0x45C DUP2 PUSH2 0x398 JUMP JUMPDEST DUP3 MSTORE POP POP JUMP JUMPDEST PUSH0 PUSH1 0x20 DUP3 ADD SWAP1 POP PUSH2 0x475 PUSH0 DUP4 ADD DUP5 PUSH2 0x453 JUMP JUMPDEST SWAP3 SWAP2 POP POP JUMP JUMPDEST PUSH0 DUP3 DUP3 MSTORE PUSH1 0x20 DUP3 ADD SWAP1 POP SWAP3 SWAP2 POP POP JUMP JUMPDEST PUSH32 0x6469646E742073656E6420656E6F756768206574680000000000000000000000 PUSH0 DUP3 ADD MSTORE POP JUMP JUMPDEST PUSH0 PUSH2 0x4BF PUSH1 0x15 DUP4 PUSH2 0x47B JUMP JUMPDEST SWAP2 POP PUSH2 0x4CA DUP3 PUSH2 0x48B JUMP JUMPDEST PUSH1 0x20 DUP3 ADD SWAP1 POP SWAP2 SWAP1 POP JUMP JUMPDEST PUSH0 PUSH1 0x20 DUP3 ADD SWAP1 POP DUP2 DUP2 SUB PUSH0 DUP4 ADD MSTORE PUSH2 0x4EC DUP2 PUSH2 0x4B3 JUMP JUMPDEST SWAP1 POP SWAP2 SWAP1 POP JUMP JUMPDEST PUSH32 0x4E487B7100000000000000000000000000000000000000000000000000000000 PUSH0 MSTORE PUSH1 0x11 PUSH1 0x4 MSTORE PUSH1 0x24 PUSH0 REVERT JUMPDEST PUSH0 PUSH2 0x52A DUP3 PUSH2 0x344 JUMP JUMPDEST SWAP2 POP PUSH2 0x535 DUP4 PUSH2 0x344 JUMP JUMPDEST SWAP3 POP DUP3 DUP3 ADD SWAP1 POP DUP1 DUP3 GT ISZERO PUSH2 0x54D JUMPI PUSH2 0x54C PUSH2 0x4F3 JUMP JUMPDEST JUMPDEST SWAP3 SWAP2 POP POP JUMP JUMPDEST PUSH0 PUSH2 0x55D DUP3 PUSH2 0x344 JUMP JUMPDEST SWAP2 POP PUSH2 0x568 DUP4 PUSH2 0x344 JUMP JUMPDEST SWAP3 POP DUP3 DUP3 MUL PUSH2 0x576 DUP2 PUSH2 0x344 JUMP JUMPDEST SWAP2 POP DUP3 DUP3 DIV DUP5 EQ DUP4 ISZERO OR PUSH2 0x58D JUMPI PUSH2 0x58C PUSH2 0x4F3 JUMP JUMPDEST JUMPDEST POP SWAP3 SWAP2 POP POP JUMP JUMPDEST PUSH32 0x4E487B7100000000000000000000000000000000000000000000000000000000 PUSH0 MSTORE PUSH1 0x12 PUSH1 0x4 MSTORE PUSH1 0x24 PUSH0 REVERT JUMPDEST PUSH0 PUSH2 0x5CB DUP3 PUSH2 0x344 JUMP JUMPDEST SWAP2 POP PUSH2 0x5D6 DUP4 PUSH2 0x344 JUMP JUMPDEST SWAP3 POP DUP3 PUSH2 0x5E6 JUMPI PUSH2 0x5E5 PUSH2 0x594 JUMP JUMPDEST JUMPDEST DUP3 DUP3 DIV SWAP1 POP SWAP3 SWAP2 POP POP JUMP JUMPDEST PUSH0 PUSH10 0xFFFFFFFFFFFFFFFFFFFF DUP3 AND SWAP1 POP SWAP2 SWAP1 POP JUMP JUMPDEST PUSH2 0x60F DUP2 PUSH2 0x5F1 JUMP JUMPDEST DUP2 EQ PUSH2 0x619 JUMPI PUSH0 PUSH0 REVERT JUMPDEST POP JUMP JUMPDEST PUSH0 DUP2 MLOAD SWAP1 POP PUSH2 0x62A DUP2 PUSH2 0x606 JUMP JUMPDEST SWAP3 SWAP2 POP POP JUMP JUMPDEST PUSH0 DUP2 SWAP1 POP SWAP2 SWAP1 POP JUMP JUMPDEST PUSH2 0x642 DUP2 PUSH2 0x630 JUMP JUMPDEST DUP2 EQ PUSH2 0x64C JUMPI PUSH0 PUSH0 REVERT JUMPDEST POP JUMP JUMPDEST PUSH0 DUP2 MLOAD SWAP1 POP PUSH2 0x65D DUP2 PUSH2 0x639 JUMP JUMPDEST SWAP3 SWAP2 POP POP JUMP JUMPDEST PUSH0 DUP2 MLOAD SWAP1 POP PUSH2 0x671 DUP2 PUSH2 0x3FE JUMP JUMPDEST SWAP3 SWAP2 POP POP JUMP JUMPDEST PUSH0 PUSH0 PUSH0 PUSH0 PUSH0 PUSH1 0xA0 DUP7 DUP9 SUB SLT ISZERO PUSH2 0x690 JUMPI PUSH2 0x68F PUSH2 0x375 JUMP JUMPDEST JUMPDEST PUSH0 PUSH2 0x69D DUP9 DUP3 DUP10 ADD PUSH2 0x61C JUMP JUMPDEST SWAP6 POP POP PUSH1 0x20 PUSH2 0x6AE DUP9 DUP3 DUP10 ADD PUSH2 0x64F JUMP JUMPDEST SWAP5 POP POP PUSH1 0x40 PUSH2 0x6BF DUP9 DUP3 DUP10 ADD PUSH2 0x663 JUMP JUMPDEST SWAP4 POP POP PUSH1 0x60 PUSH2 0x6D0 DUP9 DUP3 DUP10 ADD PUSH2 0x663 JUMP JUMPDEST SWAP3 POP POP PUSH1 0x80 PUSH2 0x6E1 DUP9 DUP3 DUP10 ADD PUSH2 0x61C JUMP JUMPDEST SWAP2 POP POP SWAP3 SWAP6 POP SWAP3 SWAP6 SWAP1 SWAP4 POP JUMP JUMPDEST PUSH0 PUSH2 0x6F8 DUP3 PUSH2 0x630 JUMP JUMPDEST SWAP2 POP PUSH2 0x703 DUP4 PUSH2 0x630 JUMP JUMPDEST SWAP3 POP DUP3 DUP3 MUL PUSH2 0x711 DUP2 PUSH2 0x630 JUMP JUMPDEST SWAP2 POP PUSH32 0x8000000000000000000000000000000000000000000000000000000000000000 DUP5 EQ PUSH0 DUP5 SLT AND ISZERO PUSH2 0x748 JUMPI PUSH2 0x747 PUSH2 0x4F3 JUMP JUMPDEST JUMPDEST DUP3 DUP3 SDIV DUP5 EQ DUP4 ISZERO OR PUSH2 0x75D JUMPI PUSH2 0x75C PUSH2 0x4F3 JUMP JUMPDEST JUMPDEST POP SWAP3 SWAP2 POP POP JUMP INVALID LOG2 PUSH5 0x6970667358 0x22 SLT KECCAK256 0xC2 0x26 0xD8 SAR RJUMP 0xEF71 0x4F SWAP11 0xD2 STOP LOG1 SLOAD PUSH32 0x38707220A8E13ACC6FCAA8EFF6DBED91479564736F6C634300081E0033000000 "
				},
				"gasEstimates": {
					"creation": {
						"codeDepositCost": "389200",
						"executionCost": "22527",
						"totalCost": "411727"
					},
					"external": {
						"addressToAmountFunded(address)": "2824",
						"fund()": "infinite",
						"funders(uint256)": "5010",
						"minimumUsd()": "2402",
						"withdraw()": "143"
					}
				},
				"methodIdentifiers": {
					"addressToAmountFunded(address)": "3e47d6f3",
					"fund()": "b60d4288",
					"funders(uint256)": "dc0d3dff",
					"minimumUsd()": "098de820",
					"withdraw()": "3ccfd60b"
				}
			},
			"storageLayout": {
				"storage": [
					{
						"astId": 55,
						"contract": "FundMe.sol:FundMe",
						"label": "minimumUsd",
						"offset": 0,
						"slot": "0",
						"type": "t_uint256"
					},
					{
						"astId": 58,
						"contract": "FundMe.sol:FundMe",
						"label": "funders",
						"offset": 0,
						"slot": "1",
						"type": "t_array(t_address)dyn_storage"
					},
					{
						"astId": 62,
						"contract": "FundMe.sol:FundMe",
						"label": "addressToAmountFunded",
						"offset": 0,
						"slot": "2",
						"type": "t_mapping(t_address,t_uint256)"
					}
				],
				"types": {
					"t_address": {
						"encoding": "inplace",
						"label": "address",
						"numberOfBytes": "20"
					},
					"t_array(t_address)dyn_storage": {
						"base": "t_address",
						"encoding": "dynamic_array",
						"label": "address[]",
						"numberOfBytes": "32"
					},
					"t_mapping(t_address,t_uint256)": {
						"encoding": "mapping",
						"key": "t_address",
						"label": "mapping(address => uint256)",
						"numberOfBytes": "32",
						"value": "t_uint256"
					},
					"t_uint256": {
						"encoding": "inplace",
						"label": "uint256",
						"numberOfBytes": "32"
					}
				}
			},
			"userdoc": {
				"kind": "user",
				"methods": {},
				"version": 1
			}
		}
	}
}