{
	"FundMe.sol": {
		"FundMe": {
			"abi": [
				{
					"inputs": [],
					"stateMutability": "nonpayable",
					"type": "constructor"
				},
				{
					"inputs": [],
					"name": "InsufficientEth",
					"type": "error"
				},
				{
					"inputs": [],
					"name": "TransferFailed",
					"type": "error"
				},
				{
					"inputs": [],
					"name": "notOwner",
					"type": "error"
				},
				{
					"stateMutability": "payable",
					"type": "fallback"
				},
				{
					"inputs": [
						{
							"internalType": "address",
							"name": "funders",
							"type": "address"
						}
					],
					"name": "addressToAmountFunded",
					"outputs": [
						{
							"internalType": "uint256",
							"name": "amountFunded",
							"type": "uint256"
						}
					],
					"stateMutability": "view",
					"type": "function"
				},
				{
					"inputs": [],
					"name": "fund",
					"outputs": [],
					"stateMutability": "payable",
					"type": "function"
				},
				{
					"inputs": [
						{
							"internalType": "uint256",
							"name": "",
							"type": "uint256"
						}
					],
					"name": "funders",
					"outputs": [
						{
							"internalType": "address",
							"name": "",
							"type": "address"
						}
					],
					"stateMutability": "view",
					"type": "function"
				},
				{
					"inputs": [],
					"name": "i_owner",
					"outputs": [
						{
							"internalType": "address",
							"name": "",
							"type": "address"
						}
					],
					"stateMutability": "view",
					"type": "function"
				},
				{
					"inputs": [],
					"name": "minimumUsd",
					"outputs": [
						{
							"internalType": "uint256",
							"name": "",
							"type": "uint256"
						}
					],
					"stateMutability": "view",
					"type": "function"
				},
				{
					"inputs": [],
					"name": "withdraw",
					"outputs": [],
					"stateMutability": "nonpayable",
					"type": "function"
				},
				{
					"stateMutability": "payable",
					"type": "receive"
				}
			],
			"devdoc": {
				"kind": "dev",
				"methods": {},
				"version": 1
			},
			"evm": {
				"assembly": "    /* \"FundMe.sol\":189:1775  contract FundMe {... */\n  mstore(0x40, 0xa0)\n    /* \"FundMe.sol\":460:514  constructor() {... */\n  callvalue\n  dup1\n  iszero\n  tag_1\n  jumpi\n  revert(0x00, 0x00)\ntag_1:\n  pop\n    /* \"FundMe.sol\":496:506  msg.sender */\n  caller\n    /* \"FundMe.sol\":485:506  i_owner  = msg.sender */\n  0xffffffffffffffffffffffffffffffffffffffff\n  and\n  0x80\n  dup2\n  0xffffffffffffffffffffffffffffffffffffffff\n  and\n  dup2\n  mstore\n  pop\n  pop\n    /* \"FundMe.sol\":189:1775  contract FundMe {... */\n  mload(0x80)\n  codecopy(0x00, dataOffset(sub_0), dataSize(sub_0))\n  0x00\n  assignImmutable(\"0xcdbc23227c72e0a3f4683bdbccfcbed38047ca1a70d48b78c210dc5393029019\")\n  return(0x00, dataSize(sub_0))\nstop\n\nsub_0: assembly {\n        /* \"FundMe.sol\":189:1775  contract FundMe {... */\n      mstore(0x40, 0x80)\n      jumpi(tag_1, lt(calldatasize, 0x04))\n      shr(0xe0, calldataload(0x00))\n      dup1\n      0x098de820\n      eq\n      tag_3\n      jumpi\n      dup1\n      0x3ccfd60b\n      eq\n      tag_4\n      jumpi\n      dup1\n      0x3e47d6f3\n      eq\n      tag_5\n      jumpi\n      dup1\n      0xb60d4288\n      eq\n      tag_6\n      jumpi\n      dup1\n      0xdba6335f\n      eq\n      tag_7\n      jumpi\n      dup1\n      0xdc0d3dff\n      eq\n      tag_8\n      jumpi\n      jump(tag_2)\n    tag_1:\n      jumpi(tag_2, calldatasize)\n        /* \"FundMe.sol\":1698:1704  fund() */\n      tag_11\n        /* \"FundMe.sol\":1698:1702  fund */\n      tag_12\n        /* \"FundMe.sol\":1698:1704  fund() */\n      jump\t// in\n    tag_11:\n        /* \"FundMe.sol\":189:1775  contract FundMe {... */\n      stop\n    tag_2:\n        /* \"FundMe.sol\":1758:1764  fund() */\n      tag_15\n        /* \"FundMe.sol\":1758:1762  fund */\n      tag_12\n        /* \"FundMe.sol\":1758:1764  fund() */\n      jump\t// in\n    tag_15:\n        /* \"FundMe.sol\":189:1775  contract FundMe {... */\n      stop\n        /* \"FundMe.sol\":251:292  uint256 public constant minimumUsd = 5e18 */\n    tag_3:\n      callvalue\n      dup1\n      iszero\n      tag_16\n      jumpi\n      revert(0x00, 0x00)\n    tag_16:\n      pop\n      tag_17\n      tag_18\n      jump\t// in\n    tag_17:\n      mload(0x40)\n      tag_19\n      swap2\n      swap1\n      tag_20\n      jump\t// in\n    tag_19:\n      mload(0x40)\n      dup1\n      swap2\n      sub\n      swap1\n      return\n        /* \"FundMe.sol\":874:1467  function withdraw() public onlyOwner{ ... */\n    tag_4:\n      callvalue\n      dup1\n      iszero\n      tag_21\n      jumpi\n      revert(0x00, 0x00)\n    tag_21:\n      pop\n      tag_22\n      tag_23\n      jump\t// in\n    tag_22:\n      stop\n        /* \"FundMe.sol\":330:408  mapping (address funders => uint256 amountFunded) public addressToAmountFunded */\n    tag_5:\n      callvalue\n      dup1\n      iszero\n      tag_24\n      jumpi\n      revert(0x00, 0x00)\n    tag_24:\n      pop\n      tag_25\n      0x04\n      dup1\n      calldatasize\n      sub\n      dup2\n      add\n      swap1\n      tag_26\n      swap2\n      swap1\n      tag_27\n      jump\t// in\n    tag_26:\n      tag_28\n      jump\t// in\n    tag_25:\n      mload(0x40)\n      tag_29\n      swap2\n      swap1\n      tag_20\n      jump\t// in\n    tag_29:\n      mload(0x40)\n      dup1\n      swap2\n      sub\n      swap1\n      return\n        /* \"FundMe.sol\":522:860  function fund() public payable  {... */\n    tag_6:\n      tag_30\n      tag_12\n      jump\t// in\n    tag_30:\n      stop\n        /* \"FundMe.sol\":415:447  address public immutable i_owner */\n    tag_7:\n      callvalue\n      dup1\n      iszero\n      tag_31\n      jumpi\n      revert(0x00, 0x00)\n    tag_31:\n      pop\n      tag_32\n      tag_33\n      jump\t// in\n    tag_32:\n      mload(0x40)\n      tag_34\n      swap2\n      swap1\n      tag_35\n      jump\t// in\n    tag_34:\n      mload(0x40)\n      dup1\n      swap2\n      sub\n      swap1\n      return\n        /* \"FundMe.sol\":299:323  address[] public funders */\n    tag_8:\n      callvalue\n      dup1\n      iszero\n      tag_36\n      jumpi\n      revert(0x00, 0x00)\n    tag_36:\n      pop\n      tag_37\n      0x04\n      dup1\n      calldatasize\n      sub\n      dup2\n      add\n      swap1\n      tag_38\n      swap2\n      swap1\n      tag_39\n      jump\t// in\n    tag_38:\n      tag_40\n      jump\t// in\n    tag_37:\n      mload(0x40)\n      tag_41\n      swap2\n      swap1\n      tag_35\n      jump\t// in\n    tag_41:\n      mload(0x40)\n      dup1\n      swap2\n      sub\n      swap1\n      return\n        /* \"FundMe.sol\":522:860  function fund() public payable  {... */\n    tag_12:\n        /* \"FundMe.sol\":288:292  5e18 */\n      0x4563918244f40000\n        /* \"FundMe.sol\":662:691  msg.value.getConversionRate() */\n      tag_43\n        /* \"FundMe.sol\":662:671  msg.value */\n      callvalue\n        /* \"FundMe.sol\":662:689  msg.value.getConversionRate */\n      tag_44\n        /* \"FundMe.sol\":662:691  msg.value.getConversionRate() */\n      jump\t// in\n    tag_43:\n        /* \"FundMe.sol\":662:703  msg.value.getConversionRate()< minimumUsd */\n      lt\n        /* \"FundMe.sol\":659:757  if(msg.value.getConversionRate()< minimumUsd){... */\n      iszero\n      tag_45\n      jumpi\n        /* \"FundMe.sol\":726:743  InsufficientEth() */\n      mload(0x40)\n      0xa01a9df600000000000000000000000000000000000000000000000000000000\n      dup2\n      mstore\n      0x04\n      add\n      mload(0x40)\n      dup1\n      swap2\n      sub\n      swap1\n      revert\n        /* \"FundMe.sol\":659:757  if(msg.value.getConversionRate()< minimumUsd){... */\n    tag_45:\n        /* \"FundMe.sol\":769:776  funders */\n      0x00\n        /* \"FundMe.sol\":782:792  msg.sender */\n      caller\n        /* \"FundMe.sol\":769:793  funders.push(msg.sender) */\n      swap1\n      dup1\n      0x01\n      dup2\n      sload\n      add\n      dup1\n      dup3\n      sstore\n      dup1\n      swap2\n      pop\n      pop\n      0x01\n      swap1\n      sub\n      swap1\n      0x00\n      mstore\n      keccak256(0x00, 0x20)\n      add\n      0x00\n      swap1\n      swap2\n      swap1\n      swap2\n      swap1\n      swap2\n      0x0100\n      exp\n      dup2\n      sload\n      dup2\n      0xffffffffffffffffffffffffffffffffffffffff\n      mul\n      not\n      and\n      swap1\n      dup4\n      0xffffffffffffffffffffffffffffffffffffffff\n      and\n      mul\n      or\n      swap1\n      sstore\n      pop\n        /* \"FundMe.sol\":843:852  msg.value */\n      callvalue\n        /* \"FundMe.sol\":806:827  addressToAmountFunded */\n      0x01\n        /* \"FundMe.sol\":806:839  addressToAmountFunded[msg.sender] */\n      0x00\n        /* \"FundMe.sol\":828:838  msg.sender */\n      caller\n        /* \"FundMe.sol\":806:839  addressToAmountFunded[msg.sender] */\n      0xffffffffffffffffffffffffffffffffffffffff\n      and\n      0xffffffffffffffffffffffffffffffffffffffff\n      and\n      dup2\n      mstore\n      0x20\n      add\n      swap1\n      dup2\n      mstore\n      0x20\n      add\n      0x00\n      keccak256\n      0x00\n        /* \"FundMe.sol\":806:852  addressToAmountFunded[msg.sender] += msg.value */\n      dup3\n      dup3\n      sload\n      tag_47\n      swap2\n      swap1\n      tag_48\n      jump\t// in\n    tag_47:\n      swap3\n      pop\n      pop\n      dup2\n      swap1\n      sstore\n      pop\n        /* \"FundMe.sol\":522:860  function fund() public payable  {... */\n      jump\t// out\n        /* \"FundMe.sol\":251:292  uint256 public constant minimumUsd = 5e18 */\n    tag_18:\n        /* \"FundMe.sol\":288:292  5e18 */\n      0x4563918244f40000\n        /* \"FundMe.sol\":251:292  uint256 public constant minimumUsd = 5e18 */\n      dup2\n      jump\t// out\n        /* \"FundMe.sol\":874:1467  function withdraw() public onlyOwner{ ... */\n    tag_23:\n        /* \"FundMe.sol\":1603:1610  i_owner */\n      immutable(\"0xcdbc23227c72e0a3f4683bdbccfcbed38047ca1a70d48b78c210dc5393029019\")\n        /* \"FundMe.sol\":1589:1610  msg.sender != i_owner */\n      0xffffffffffffffffffffffffffffffffffffffff\n      and\n        /* \"FundMe.sol\":1589:1599  msg.sender */\n      caller\n        /* \"FundMe.sol\":1589:1610  msg.sender != i_owner */\n      0xffffffffffffffffffffffffffffffffffffffff\n      and\n      eq\n        /* \"FundMe.sol\":1586:1632  if(msg.sender != i_owner) {revert notOwner();} */\n      tag_50\n      jumpi\n        /* \"FundMe.sol\":1620:1630  notOwner() */\n      mload(0x40)\n      0x251c9d6300000000000000000000000000000000000000000000000000000000\n      dup2\n      mstore\n      0x04\n      add\n      mload(0x40)\n      dup1\n      swap2\n      sub\n      swap1\n      revert\n        /* \"FundMe.sol\":1586:1632  if(msg.sender != i_owner) {revert notOwner();} */\n    tag_50:\n        /* \"FundMe.sol\":1015:1029  uint256 length */\n      0x00\n        /* \"FundMe.sol\":1032:1039  funders */\n      0x00\n        /* \"FundMe.sol\":1032:1046  funders.length */\n      dup1\n      sload\n      swap1\n      pop\n        /* \"FundMe.sol\":1015:1046  uint256 length = funders.length */\n      swap1\n      pop\n        /* \"FundMe.sol\":1066:1075  uint256 i */\n      0x00\n        /* \"FundMe.sol\":1078:1079  0 */\n      0x00\n        /* \"FundMe.sol\":1066:1079  uint256 i = 0 */\n      swap1\n      pop\n        /* \"FundMe.sol\":1061:1251  for (uint256 i = 0; i < length; i++){... */\n    tag_52:\n        /* \"FundMe.sol\":1085:1091  length */\n      dup2\n        /* \"FundMe.sol\":1081:1082  i */\n      dup2\n        /* \"FundMe.sol\":1081:1091  i < length */\n      lt\n        /* \"FundMe.sol\":1061:1251  for (uint256 i = 0; i < length; i++){... */\n      iszero\n      tag_53\n      jumpi\n        /* \"FundMe.sol\":1165:1179  address funder */\n      0x00\n        /* \"FundMe.sol\":1182:1189  funders */\n      0x00\n        /* \"FundMe.sol\":1190:1191  i */\n      dup3\n        /* \"FundMe.sol\":1182:1192  funders[i] */\n      dup2\n      sload\n      dup2\n      lt\n      tag_55\n      jumpi\n      tag_56\n      tag_57\n      jump\t// in\n    tag_56:\n    tag_55:\n      swap1\n      0x00\n      mstore\n      keccak256(0x00, 0x20)\n      add\n      0x00\n      swap1\n      sload\n      swap1\n      0x0100\n      exp\n      swap1\n      div\n      0xffffffffffffffffffffffffffffffffffffffff\n      and\n        /* \"FundMe.sol\":1165:1192  address funder = funders[i] */\n      swap1\n      pop\n        /* \"FundMe.sol\":1238:1239  0 */\n      0x00\n        /* \"FundMe.sol\":1206:1227  addressToAmountFunded */\n      0x01\n        /* \"FundMe.sol\":1206:1235  addressToAmountFunded[funder] */\n      0x00\n        /* \"FundMe.sol\":1228:1234  funder */\n      dup4\n        /* \"FundMe.sol\":1206:1235  addressToAmountFunded[funder] */\n      0xffffffffffffffffffffffffffffffffffffffff\n      and\n      0xffffffffffffffffffffffffffffffffffffffff\n      and\n      dup2\n      mstore\n      0x20\n      add\n      swap1\n      dup2\n      mstore\n      0x20\n      add\n      0x00\n      keccak256\n        /* \"FundMe.sol\":1206:1239  addressToAmountFunded[funder] = 0 */\n      dup2\n      swap1\n      sstore\n      pop\n        /* \"FundMe.sol\":1097:1251  {... */\n      pop\n        /* \"FundMe.sol\":1093:1096  i++ */\n      dup1\n      dup1\n      0x01\n      add\n      swap2\n      pop\n      pop\n        /* \"FundMe.sol\":1061:1251  for (uint256 i = 0; i < length; i++){... */\n      jump(tag_52)\n    tag_53:\n      pop\n        /* \"FundMe.sol\":1285:1286  0 */\n      0x00\n        /* \"FundMe.sol\":1271:1287  new address[](0) */\n      0xffffffffffffffff\n      dup2\n      gt\n      iszero\n      tag_59\n      jumpi\n      tag_60\n      tag_61\n      jump\t// in\n    tag_60:\n    tag_59:\n      mload(0x40)\n      swap1\n      dup1\n      dup3\n      mstore\n      dup1\n      0x20\n      mul\n      0x20\n      add\n      dup3\n      add\n      0x40\n      mstore\n      dup1\n      iszero\n      tag_62\n      jumpi\n      dup2\n      0x20\n      add\n      0x20\n      dup3\n      mul\n      dup1\n      calldatasize\n      dup4\n      calldatacopy\n      dup1\n      dup3\n      add\n      swap2\n      pop\n      pop\n      swap1\n      pop\n    tag_62:\n      pop\n        /* \"FundMe.sol\":1261:1268  funders */\n      0x00\n        /* \"FundMe.sol\":1261:1287  funders = new address[](0) */\n      swap1\n      dup1\n      mload\n      swap1\n      0x20\n      add\n      swap1\n      tag_63\n      swap3\n      swap2\n      swap1\n      tag_64\n      jump\t// in\n    tag_63:\n      pop\n        /* \"FundMe.sol\":1301:1317  bool callSuccess */\n      0x00\n        /* \"FundMe.sol\":1330:1340  msg.sender */\n      caller\n        /* \"FundMe.sol\":1322:1346  payable(msg.sender).call */\n      0xffffffffffffffffffffffffffffffffffffffff\n      and\n        /* \"FundMe.sol\":1354:1375  address(this).balance */\n      selfbalance\n        /* \"FundMe.sol\":1322:1380  payable(msg.sender).call{value: address(this).balance}(\"\") */\n      mload(0x40)\n      tag_65\n      swap1\n      tag_66\n      jump\t// in\n    tag_65:\n      0x00\n      mload(0x40)\n      dup1\n      dup4\n      sub\n      dup2\n      dup6\n      dup8\n      gas\n      call\n      swap3\n      pop\n      pop\n      pop\n      returndatasize\n      dup1\n      0x00\n      dup2\n      eq\n      tag_69\n      jumpi\n      mload(0x40)\n      swap2\n      pop\n      and(add(returndatasize, 0x3f), not(0x1f))\n      dup3\n      add\n      0x40\n      mstore\n      returndatasize\n      dup3\n      mstore\n      returndatasize\n      0x00\n      0x20\n      dup5\n      add\n      returndatacopy\n      jump(tag_68)\n    tag_69:\n      0x60\n      swap2\n      pop\n    tag_68:\n      pop\n        /* \"FundMe.sol\":1300:1380  (bool callSuccess,) = payable(msg.sender).call{value: address(this).balance}(\"\") */\n      pop\n      swap1\n      pop\n        /* \"FundMe.sol\":1397:1408  callSuccess */\n      dup1\n        /* \"FundMe.sol\":1392:1460  if (!callSuccess) {... */\n      tag_70\n      jumpi\n        /* \"FundMe.sol\":1432:1448  TransferFailed() */\n      mload(0x40)\n      0x90b8ec1800000000000000000000000000000000000000000000000000000000\n      dup2\n      mstore\n      0x04\n      add\n      mload(0x40)\n      dup1\n      swap2\n      sub\n      swap1\n      revert\n        /* \"FundMe.sol\":1392:1460  if (!callSuccess) {... */\n    tag_70:\n        /* \"FundMe.sol\":910:1467  { ... */\n      pop\n      pop\n        /* \"FundMe.sol\":874:1467  function withdraw() public onlyOwner{ ... */\n      jump\t// out\n        /* \"FundMe.sol\":330:408  mapping (address funders => uint256 amountFunded) public addressToAmountFunded */\n    tag_28:\n      mstore(0x20, 0x01)\n      dup1\n      0x00\n      mstore\n      keccak256(0x00, 0x40)\n      0x00\n      swap2\n      pop\n      swap1\n      pop\n      sload\n      dup2\n      jump\t// out\n        /* \"FundMe.sol\":415:447  address public immutable i_owner */\n    tag_33:\n      immutable(\"0xcdbc23227c72e0a3f4683bdbccfcbed38047ca1a70d48b78c210dc5393029019\")\n      dup2\n      jump\t// out\n        /* \"FundMe.sol\":299:323  address[] public funders */\n    tag_40:\n      0x00\n      dup2\n      dup2\n      sload\n      dup2\n      lt\n      tag_71\n      jumpi\n      0x00\n      dup1\n      revert\n    tag_71:\n      swap1\n      0x00\n      mstore\n      keccak256(0x00, 0x20)\n      add\n      0x00\n      swap2\n      pop\n      sload\n      swap1\n      0x0100\n      exp\n      swap1\n      div\n      0xffffffffffffffffffffffffffffffffffffffff\n      and\n      dup2\n      jump\t// out\n        /* \"PriceConverter.sol\":549:771  function getConversionRate(uint256 ethAmount) internal view returns (uint256){... */\n    tag_44:\n        /* \"PriceConverter.sol\":618:625  uint256 */\n      0x00\n        /* \"PriceConverter.sol\":637:653  uint256 ethPrice */\n      0x00\n        /* \"PriceConverter.sol\":656:666  getPrice() */\n      tag_74\n        /* \"PriceConverter.sol\":656:664  getPrice */\n      tag_75\n        /* \"PriceConverter.sol\":656:666  getPrice() */\n      jump\t// in\n    tag_74:\n        /* \"PriceConverter.sol\":637:666  uint256 ethPrice = getPrice() */\n      swap1\n      pop\n        /* \"PriceConverter.sol\":677:699  uint256 ethAmountInUsd */\n      0x00\n        /* \"PriceConverter.sol\":727:731  1e18 */\n      0x0de0b6b3a7640000\n        /* \"PriceConverter.sol\":714:723  ethAmount */\n      dup5\n        /* \"PriceConverter.sol\":703:711  ethPrice */\n      dup4\n        /* \"PriceConverter.sol\":703:723  ethPrice * ethAmount */\n      tag_76\n      swap2\n      swap1\n      tag_77\n      jump\t// in\n    tag_76:\n        /* \"PriceConverter.sol\":702:731  (ethPrice * ethAmount) / 1e18 */\n      tag_78\n      swap2\n      swap1\n      tag_79\n      jump\t// in\n    tag_78:\n        /* \"PriceConverter.sol\":677:731  uint256 ethAmountInUsd = (ethPrice * ethAmount) / 1e18 */\n      swap1\n      pop\n        /* \"PriceConverter.sol\":749:763  ethAmountInUsd */\n      dup1\n        /* \"PriceConverter.sol\":742:763  return ethAmountInUsd */\n      swap3\n      pop\n      pop\n      pop\n        /* \"PriceConverter.sol\":549:771  function getConversionRate(uint256 ethAmount) internal view returns (uint256){... */\n      swap2\n      swap1\n      pop\n      jump\t// out\n        /* \"PriceConverter.sol\":209:543  function getPrice() internal  view returns (uint256) {... */\n    tag_75:\n        /* \"PriceConverter.sol\":253:260  uint256 */\n      0x00\n        /* \"PriceConverter.sol\":337:368  AggregatorV3Interface priceFeed */\n      0x00\n        /* \"PriceConverter.sol\":393:435  0x694AA1769357215DE4FAC081bf1f309aDC325306 */\n      0x694aa1769357215de4fac081bf1f309adc325306\n        /* \"PriceConverter.sol\":337:436  AggregatorV3Interface priceFeed = AggregatorV3Interface(0x694AA1769357215DE4FAC081bf1f309aDC325306) */\n      swap1\n      pop\n        /* \"PriceConverter.sol\":449:462  int256 answer */\n      0x00\n        /* \"PriceConverter.sol\":468:477  priceFeed */\n      dup2\n        /* \"PriceConverter.sol\":468:493  priceFeed.latestRoundData */\n      0xffffffffffffffffffffffffffffffffffffffff\n      and\n      0xfeaf968c\n        /* \"PriceConverter.sol\":468:495  priceFeed.latestRoundData() */\n      mload(0x40)\n      dup2\n      0xffffffff\n      and\n      0xe0\n      shl\n      dup2\n      mstore\n      0x04\n      add\n      0xa0\n      mload(0x40)\n      dup1\n      dup4\n      sub\n      dup2\n      dup7\n      gas\n      staticcall\n      iszero\n      dup1\n      iszero\n      tag_82\n      jumpi\n      returndatacopy(0x00, 0x00, returndatasize)\n      revert(0x00, returndatasize)\n    tag_82:\n      pop\n      pop\n      pop\n      pop\n      mload(0x40)\n      returndatasize\n      not(0x1f)\n      0x1f\n      dup3\n      add\n      and\n      dup3\n      add\n      dup1\n      0x40\n      mstore\n      pop\n      dup2\n      add\n      swap1\n      tag_83\n      swap2\n      swap1\n      tag_84\n      jump\t// in\n    tag_83:\n        /* \"PriceConverter.sol\":447:495  (,int256 answer,,,)= priceFeed.latestRoundData() */\n      pop\n      pop\n      pop\n      swap2\n      pop\n      pop\n        /* \"PriceConverter.sol\":530:534  1e10 */\n      0x02540be400\n        /* \"PriceConverter.sol\":521:527  answer */\n      dup2\n        /* \"PriceConverter.sol\":521:534  answer * 1e10 */\n      tag_85\n      swap2\n      swap1\n      tag_86\n      jump\t// in\n    tag_85:\n        /* \"PriceConverter.sol\":506:535  return uint256(answer * 1e10) */\n      swap3\n      pop\n      pop\n      pop\n        /* \"PriceConverter.sol\":209:543  function getPrice() internal  view returns (uint256) {... */\n      swap1\n      jump\t// out\n    tag_64:\n      dup3\n      dup1\n      sload\n      dup3\n      dup3\n      sstore\n      swap1\n      0x00\n      mstore\n      keccak256(0x00, 0x20)\n      swap1\n      dup2\n      add\n      swap3\n      dup3\n      iszero\n      tag_87\n      jumpi\n      swap2\n      0x20\n      mul\n      dup3\n      add\n    tag_88:\n      dup3\n      dup2\n      gt\n      iszero\n      tag_89\n      jumpi\n      dup3\n      mload\n      dup3\n      exp(0x0100, 0x00)\n      dup2\n      sload\n      dup2\n      0xffffffffffffffffffffffffffffffffffffffff\n      mul\n      not\n      and\n      swap1\n      dup4\n      0xffffffffffffffffffffffffffffffffffffffff\n      and\n      mul\n      or\n      swap1\n      sstore\n      pop\n      swap2\n      0x20\n      add\n      swap2\n      swap1\n      0x01\n      add\n      swap1\n      jump(tag_88)\n    tag_89:\n    tag_87:\n      pop\n      swap1\n      pop\n      tag_90\n      swap2\n      swap1\n      tag_91\n      jump\t// in\n    tag_90:\n      pop\n      swap1\n      jump\t// out\n    tag_91:\n    tag_92:\n      dup1\n      dup3\n      gt\n      iszero\n      tag_93\n      jumpi\n      0x00\n      dup2\n      0x00\n      swap1\n      sstore\n      pop\n      0x01\n      add\n      jump(tag_92)\n    tag_93:\n      pop\n      swap1\n      jump\t// out\n        /* \"#utility.yul\":7:84   */\n    tag_94:\n        /* \"#utility.yul\":44:51   */\n      0x00\n        /* \"#utility.yul\":73:78   */\n      dup2\n        /* \"#utility.yul\":62:78   */\n      swap1\n      pop\n        /* \"#utility.yul\":7:84   */\n      swap2\n      swap1\n      pop\n      jump\t// out\n        /* \"#utility.yul\":90:208   */\n    tag_95:\n        /* \"#utility.yul\":177:201   */\n      tag_121\n        /* \"#utility.yul\":195:200   */\n      dup2\n        /* \"#utility.yul\":177:201   */\n      tag_94\n      jump\t// in\n    tag_121:\n        /* \"#utility.yul\":172:175   */\n      dup3\n        /* \"#utility.yul\":165:202   */\n      mstore\n        /* \"#utility.yul\":90:208   */\n      pop\n      pop\n      jump\t// out\n        /* \"#utility.yul\":214:436   */\n    tag_20:\n        /* \"#utility.yul\":307:311   */\n      0x00\n        /* \"#utility.yul\":345:347   */\n      0x20\n        /* \"#utility.yul\":334:343   */\n      dup3\n        /* \"#utility.yul\":330:348   */\n      add\n        /* \"#utility.yul\":322:348   */\n      swap1\n      pop\n        /* \"#utility.yul\":358:429   */\n      tag_123\n        /* \"#utility.yul\":426:427   */\n      0x00\n        /* \"#utility.yul\":415:424   */\n      dup4\n        /* \"#utility.yul\":411:428   */\n      add\n        /* \"#utility.yul\":402:408   */\n      dup5\n        /* \"#utility.yul\":358:429   */\n      tag_95\n      jump\t// in\n    tag_123:\n        /* \"#utility.yul\":214:436   */\n      swap3\n      swap2\n      pop\n      pop\n      jump\t// out\n        /* \"#utility.yul\":523:640   */\n    tag_97:\n        /* \"#utility.yul\":632:633   */\n      0x00\n        /* \"#utility.yul\":629:630   */\n      0x00\n        /* \"#utility.yul\":622:634   */\n      revert\n        /* \"#utility.yul\":769:895   */\n    tag_99:\n        /* \"#utility.yul\":806:813   */\n      0x00\n        /* \"#utility.yul\":846:888   */\n      0xffffffffffffffffffffffffffffffffffffffff\n        /* \"#utility.yul\":839:844   */\n      dup3\n        /* \"#utility.yul\":835:889   */\n      and\n        /* \"#utility.yul\":824:889   */\n      swap1\n      pop\n        /* \"#utility.yul\":769:895   */\n      swap2\n      swap1\n      pop\n      jump\t// out\n        /* \"#utility.yul\":901:997   */\n    tag_100:\n        /* \"#utility.yul\":938:945   */\n      0x00\n        /* \"#utility.yul\":967:991   */\n      tag_129\n        /* \"#utility.yul\":985:990   */\n      dup3\n        /* \"#utility.yul\":967:991   */\n      tag_99\n      jump\t// in\n    tag_129:\n        /* \"#utility.yul\":956:991   */\n      swap1\n      pop\n        /* \"#utility.yul\":901:997   */\n      swap2\n      swap1\n      pop\n      jump\t// out\n        /* \"#utility.yul\":1003:1125   */\n    tag_101:\n        /* \"#utility.yul\":1076:1100   */\n      tag_131\n        /* \"#utility.yul\":1094:1099   */\n      dup2\n        /* \"#utility.yul\":1076:1100   */\n      tag_100\n      jump\t// in\n    tag_131:\n        /* \"#utility.yul\":1069:1074   */\n      dup2\n        /* \"#utility.yul\":1066:1101   */\n      eq\n        /* \"#utility.yul\":1056:1119   */\n      tag_132\n      jumpi\n        /* \"#utility.yul\":1115:1116   */\n      0x00\n        /* \"#utility.yul\":1112:1113   */\n      0x00\n        /* \"#utility.yul\":1105:1117   */\n      revert\n        /* \"#utility.yul\":1056:1119   */\n    tag_132:\n        /* \"#utility.yul\":1003:1125   */\n      pop\n      jump\t// out\n        /* \"#utility.yul\":1131:1270   */\n    tag_102:\n        /* \"#utility.yul\":1177:1182   */\n      0x00\n        /* \"#utility.yul\":1215:1221   */\n      dup2\n        /* \"#utility.yul\":1202:1222   */\n      calldataload\n        /* \"#utility.yul\":1193:1222   */\n      swap1\n      pop\n        /* \"#utility.yul\":1231:1264   */\n      tag_134\n        /* \"#utility.yul\":1258:1263   */\n      dup2\n        /* \"#utility.yul\":1231:1264   */\n      tag_101\n      jump\t// in\n    tag_134:\n        /* \"#utility.yul\":1131:1270   */\n      swap3\n      swap2\n      pop\n      pop\n      jump\t// out\n        /* \"#utility.yul\":1276:1605   */\n    tag_27:\n        /* \"#utility.yul\":1335:1341   */\n      0x00\n        /* \"#utility.yul\":1384:1386   */\n      0x20\n        /* \"#utility.yul\":1372:1381   */\n      dup3\n        /* \"#utility.yul\":1363:1370   */\n      dup5\n        /* \"#utility.yul\":1359:1382   */\n      sub\n        /* \"#utility.yul\":1355:1387   */\n      slt\n        /* \"#utility.yul\":1352:1471   */\n      iszero\n      tag_136\n      jumpi\n        /* \"#utility.yul\":1390:1469   */\n      tag_137\n      tag_97\n      jump\t// in\n    tag_137:\n        /* \"#utility.yul\":1352:1471   */\n    tag_136:\n        /* \"#utility.yul\":1510:1511   */\n      0x00\n        /* \"#utility.yul\":1535:1588   */\n      tag_138\n        /* \"#utility.yul\":1580:1587   */\n      dup5\n        /* \"#utility.yul\":1571:1577   */\n      dup3\n        /* \"#utility.yul\":1560:1569   */\n      dup6\n        /* \"#utility.yul\":1556:1578   */\n      add\n        /* \"#utility.yul\":1535:1588   */\n      tag_102\n      jump\t// in\n    tag_138:\n        /* \"#utility.yul\":1525:1588   */\n      swap2\n      pop\n        /* \"#utility.yul\":1481:1598   */\n      pop\n        /* \"#utility.yul\":1276:1605   */\n      swap3\n      swap2\n      pop\n      pop\n      jump\t// out\n        /* \"#utility.yul\":1611:1729   */\n    tag_103:\n        /* \"#utility.yul\":1698:1722   */\n      tag_140\n        /* \"#utility.yul\":1716:1721   */\n      dup2\n        /* \"#utility.yul\":1698:1722   */\n      tag_100\n      jump\t// in\n    tag_140:\n        /* \"#utility.yul\":1693:1696   */\n      dup3\n        /* \"#utility.yul\":1686:1723   */\n      mstore\n        /* \"#utility.yul\":1611:1729   */\n      pop\n      pop\n      jump\t// out\n        /* \"#utility.yul\":1735:1957   */\n    tag_35:\n        /* \"#utility.yul\":1828:1832   */\n      0x00\n        /* \"#utility.yul\":1866:1868   */\n      0x20\n        /* \"#utility.yul\":1855:1864   */\n      dup3\n        /* \"#utility.yul\":1851:1869   */\n      add\n        /* \"#utility.yul\":1843:1869   */\n      swap1\n      pop\n        /* \"#utility.yul\":1879:1950   */\n      tag_142\n        /* \"#utility.yul\":1947:1948   */\n      0x00\n        /* \"#utility.yul\":1936:1945   */\n      dup4\n        /* \"#utility.yul\":1932:1949   */\n      add\n        /* \"#utility.yul\":1923:1929   */\n      dup5\n        /* \"#utility.yul\":1879:1950   */\n      tag_103\n      jump\t// in\n    tag_142:\n        /* \"#utility.yul\":1735:1957   */\n      swap3\n      swap2\n      pop\n      pop\n      jump\t// out\n        /* \"#utility.yul\":1963:2085   */\n    tag_104:\n        /* \"#utility.yul\":2036:2060   */\n      tag_144\n        /* \"#utility.yul\":2054:2059   */\n      dup2\n        /* \"#utility.yul\":2036:2060   */\n      tag_94\n      jump\t// in\n    tag_144:\n        /* \"#utility.yul\":2029:2034   */\n      dup2\n        /* \"#utility.yul\":2026:2061   */\n      eq\n        /* \"#utility.yul\":2016:2079   */\n      tag_145\n      jumpi\n        /* \"#utility.yul\":2075:2076   */\n      0x00\n        /* \"#utility.yul\":2072:2073   */\n      0x00\n        /* \"#utility.yul\":2065:2077   */\n      revert\n        /* \"#utility.yul\":2016:2079   */\n    tag_145:\n        /* \"#utility.yul\":1963:2085   */\n      pop\n      jump\t// out\n        /* \"#utility.yul\":2091:2230   */\n    tag_105:\n        /* \"#utility.yul\":2137:2142   */\n      0x00\n        /* \"#utility.yul\":2175:2181   */\n      dup2\n        /* \"#utility.yul\":2162:2182   */\n      calldataload\n        /* \"#utility.yul\":2153:2182   */\n      swap1\n      pop\n        /* \"#utility.yul\":2191:2224   */\n      tag_147\n        /* \"#utility.yul\":2218:2223   */\n      dup2\n        /* \"#utility.yul\":2191:2224   */\n      tag_104\n      jump\t// in\n    tag_147:\n        /* \"#utility.yul\":2091:2230   */\n      swap3\n      swap2\n      pop\n      pop\n      jump\t// out\n        /* \"#utility.yul\":2236:2565   */\n    tag_39:\n        /* \"#utility.yul\":2295:2301   */\n      0x00\n        /* \"#utility.yul\":2344:2346   */\n      0x20\n        /* \"#utility.yul\":2332:2341   */\n      dup3\n        /* \"#utility.yul\":2323:2330   */\n      dup5\n        /* \"#utility.yul\":2319:2342   */\n      sub\n        /* \"#utility.yul\":2315:2347   */\n      slt\n        /* \"#utility.yul\":2312:2431   */\n      iszero\n      tag_149\n      jumpi\n        /* \"#utility.yul\":2350:2429   */\n      tag_150\n      tag_97\n      jump\t// in\n    tag_150:\n        /* \"#utility.yul\":2312:2431   */\n    tag_149:\n        /* \"#utility.yul\":2470:2471   */\n      0x00\n        /* \"#utility.yul\":2495:2548   */\n      tag_151\n        /* \"#utility.yul\":2540:2547   */\n      dup5\n        /* \"#utility.yul\":2531:2537   */\n      dup3\n        /* \"#utility.yul\":2520:2529   */\n      dup6\n        /* \"#utility.yul\":2516:2538   */\n      add\n        /* \"#utility.yul\":2495:2548   */\n      tag_105\n      jump\t// in\n    tag_151:\n        /* \"#utility.yul\":2485:2548   */\n      swap2\n      pop\n        /* \"#utility.yul\":2441:2558   */\n      pop\n        /* \"#utility.yul\":2236:2565   */\n      swap3\n      swap2\n      pop\n      pop\n      jump\t// out\n        /* \"#utility.yul\":2571:2751   */\n    tag_106:\n        /* \"#utility.yul\":2619:2696   */\n      0x4e487b7100000000000000000000000000000000000000000000000000000000\n        /* \"#utility.yul\":2616:2617   */\n      0x00\n        /* \"#utility.yul\":2609:2697   */\n      mstore\n        /* \"#utility.yul\":2716:2720   */\n      0x11\n        /* \"#utility.yul\":2713:2714   */\n      0x04\n        /* \"#utility.yul\":2706:2721   */\n      mstore\n        /* \"#utility.yul\":2740:2744   */\n      0x24\n        /* \"#utility.yul\":2737:2738   */\n      0x00\n        /* \"#utility.yul\":2730:2745   */\n      revert\n        /* \"#utility.yul\":2757:2948   */\n    tag_48:\n        /* \"#utility.yul\":2797:2800   */\n      0x00\n        /* \"#utility.yul\":2816:2836   */\n      tag_154\n        /* \"#utility.yul\":2834:2835   */\n      dup3\n        /* \"#utility.yul\":2816:2836   */\n      tag_94\n      jump\t// in\n    tag_154:\n        /* \"#utility.yul\":2811:2836   */\n      swap2\n      pop\n        /* \"#utility.yul\":2850:2870   */\n      tag_155\n        /* \"#utility.yul\":2868:2869   */\n      dup4\n        /* \"#utility.yul\":2850:2870   */\n      tag_94\n      jump\t// in\n    tag_155:\n        /* \"#utility.yul\":2845:2870   */\n      swap3\n      pop\n        /* \"#utility.yul\":2893:2894   */\n      dup3\n        /* \"#utility.yul\":2890:2891   */\n      dup3\n        /* \"#utility.yul\":2886:2895   */\n      add\n        /* \"#utility.yul\":2879:2895   */\n      swap1\n      pop\n        /* \"#utility.yul\":2914:2917   */\n      dup1\n        /* \"#utility.yul\":2911:2912   */\n      dup3\n        /* \"#utility.yul\":2908:2918   */\n      gt\n        /* \"#utility.yul\":2905:2941   */\n      iszero\n      tag_156\n      jumpi\n        /* \"#utility.yul\":2921:2939   */\n      tag_157\n      tag_106\n      jump\t// in\n    tag_157:\n        /* \"#utility.yul\":2905:2941   */\n    tag_156:\n        /* \"#utility.yul\":2757:2948   */\n      swap3\n      swap2\n      pop\n      pop\n      jump\t// out\n        /* \"#utility.yul\":2954:3134   */\n    tag_57:\n        /* \"#utility.yul\":3002:3079   */\n      0x4e487b7100000000000000000000000000000000000000000000000000000000\n        /* \"#utility.yul\":2999:3000   */\n      0x00\n        /* \"#utility.yul\":2992:3080   */\n      mstore\n        /* \"#utility.yul\":3099:3103   */\n      0x32\n        /* \"#utility.yul\":3096:3097   */\n      0x04\n        /* \"#utility.yul\":3089:3104   */\n      mstore\n        /* \"#utility.yul\":3123:3127   */\n      0x24\n        /* \"#utility.yul\":3120:3121   */\n      0x00\n        /* \"#utility.yul\":3113:3128   */\n      revert\n        /* \"#utility.yul\":3140:3320   */\n    tag_61:\n        /* \"#utility.yul\":3188:3265   */\n      0x4e487b7100000000000000000000000000000000000000000000000000000000\n        /* \"#utility.yul\":3185:3186   */\n      0x00\n        /* \"#utility.yul\":3178:3266   */\n      mstore\n        /* \"#utility.yul\":3285:3289   */\n      0x41\n        /* \"#utility.yul\":3282:3283   */\n      0x04\n        /* \"#utility.yul\":3275:3290   */\n      mstore\n        /* \"#utility.yul\":3309:3313   */\n      0x24\n        /* \"#utility.yul\":3306:3307   */\n      0x00\n        /* \"#utility.yul\":3299:3314   */\n      revert\n        /* \"#utility.yul\":3326:3473   */\n    tag_107:\n        /* \"#utility.yul\":3427:3438   */\n      0x00\n        /* \"#utility.yul\":3464:3467   */\n      dup2\n        /* \"#utility.yul\":3449:3467   */\n      swap1\n      pop\n        /* \"#utility.yul\":3326:3473   */\n      swap3\n      swap2\n      pop\n      pop\n      jump\t// out\n        /* \"#utility.yul\":3479:3593   */\n    tag_108:\n      pop\n      jump\t// out\n        /* \"#utility.yul\":3599:3997   */\n    tag_109:\n        /* \"#utility.yul\":3758:3761   */\n      0x00\n        /* \"#utility.yul\":3779:3862   */\n      tag_163\n        /* \"#utility.yul\":3860:3861   */\n      0x00\n        /* \"#utility.yul\":3855:3858   */\n      dup4\n        /* \"#utility.yul\":3779:3862   */\n      tag_107\n      jump\t// in\n    tag_163:\n        /* \"#utility.yul\":3772:3862   */\n      swap2\n      pop\n        /* \"#utility.yul\":3871:3964   */\n      tag_164\n        /* \"#utility.yul\":3960:3963   */\n      dup3\n        /* \"#utility.yul\":3871:3964   */\n      tag_108\n      jump\t// in\n    tag_164:\n        /* \"#utility.yul\":3989:3990   */\n      0x00\n        /* \"#utility.yul\":3984:3987   */\n      dup3\n        /* \"#utility.yul\":3980:3991   */\n      add\n        /* \"#utility.yul\":3973:3991   */\n      swap1\n      pop\n        /* \"#utility.yul\":3599:3997   */\n      swap2\n      swap1\n      pop\n      jump\t// out\n        /* \"#utility.yul\":4003:4382   */\n    tag_66:\n        /* \"#utility.yul\":4187:4190   */\n      0x00\n        /* \"#utility.yul\":4209:4356   */\n      tag_166\n        /* \"#utility.yul\":4352:4355   */\n      dup3\n        /* \"#utility.yul\":4209:4356   */\n      tag_109\n      jump\t// in\n    tag_166:\n        /* \"#utility.yul\":4202:4356   */\n      swap2\n      pop\n        /* \"#utility.yul\":4373:4376   */\n      dup2\n        /* \"#utility.yul\":4366:4376   */\n      swap1\n      pop\n        /* \"#utility.yul\":4003:4382   */\n      swap2\n      swap1\n      pop\n      jump\t// out\n        /* \"#utility.yul\":4388:4798   */\n    tag_77:\n        /* \"#utility.yul\":4428:4435   */\n      0x00\n        /* \"#utility.yul\":4451:4471   */\n      tag_168\n        /* \"#utility.yul\":4469:4470   */\n      dup3\n        /* \"#utility.yul\":4451:4471   */\n      tag_94\n      jump\t// in\n    tag_168:\n        /* \"#utility.yul\":4446:4471   */\n      swap2\n      pop\n        /* \"#utility.yul\":4485:4505   */\n      tag_169\n        /* \"#utility.yul\":4503:4504   */\n      dup4\n        /* \"#utility.yul\":4485:4505   */\n      tag_94\n      jump\t// in\n    tag_169:\n        /* \"#utility.yul\":4480:4505   */\n      swap3\n      pop\n        /* \"#utility.yul\":4540:4541   */\n      dup3\n        /* \"#utility.yul\":4537:4538   */\n      dup3\n        /* \"#utility.yul\":4533:4542   */\n      mul\n        /* \"#utility.yul\":4562:4592   */\n      tag_170\n        /* \"#utility.yul\":4580:4591   */\n      dup2\n        /* \"#utility.yul\":4562:4592   */\n      tag_94\n      jump\t// in\n    tag_170:\n        /* \"#utility.yul\":4551:4592   */\n      swap2\n      pop\n        /* \"#utility.yul\":4741:4742   */\n      dup3\n        /* \"#utility.yul\":4732:4739   */\n      dup3\n        /* \"#utility.yul\":4728:4743   */\n      div\n        /* \"#utility.yul\":4725:4726   */\n      dup5\n        /* \"#utility.yul\":4722:4744   */\n      eq\n        /* \"#utility.yul\":4702:4703   */\n      dup4\n        /* \"#utility.yul\":4695:4704   */\n      iszero\n        /* \"#utility.yul\":4675:4758   */\n      or\n        /* \"#utility.yul\":4652:4791   */\n      tag_171\n      jumpi\n        /* \"#utility.yul\":4771:4789   */\n      tag_172\n      tag_106\n      jump\t// in\n    tag_172:\n        /* \"#utility.yul\":4652:4791   */\n    tag_171:\n        /* \"#utility.yul\":4436:4798   */\n      pop\n        /* \"#utility.yul\":4388:4798   */\n      swap3\n      swap2\n      pop\n      pop\n      jump\t// out\n        /* \"#utility.yul\":4804:4984   */\n    tag_110:\n        /* \"#utility.yul\":4852:4929   */\n      0x4e487b7100000000000000000000000000000000000000000000000000000000\n        /* \"#utility.yul\":4849:4850   */\n      0x00\n        /* \"#utility.yul\":4842:4930   */\n      mstore\n        /* \"#utility.yul\":4949:4953   */\n      0x12\n        /* \"#utility.yul\":4946:4947   */\n      0x04\n        /* \"#utility.yul\":4939:4954   */\n      mstore\n        /* \"#utility.yul\":4973:4977   */\n      0x24\n        /* \"#utility.yul\":4970:4971   */\n      0x00\n        /* \"#utility.yul\":4963:4978   */\n      revert\n        /* \"#utility.yul\":4990:5175   */\n    tag_79:\n        /* \"#utility.yul\":5030:5031   */\n      0x00\n        /* \"#utility.yul\":5047:5067   */\n      tag_175\n        /* \"#utility.yul\":5065:5066   */\n      dup3\n        /* \"#utility.yul\":5047:5067   */\n      tag_94\n      jump\t// in\n    tag_175:\n        /* \"#utility.yul\":5042:5067   */\n      swap2\n      pop\n        /* \"#utility.yul\":5081:5101   */\n      tag_176\n        /* \"#utility.yul\":5099:5100   */\n      dup4\n        /* \"#utility.yul\":5081:5101   */\n      tag_94\n      jump\t// in\n    tag_176:\n        /* \"#utility.yul\":5076:5101   */\n      swap3\n      pop\n        /* \"#utility.yul\":5120:5121   */\n      dup3\n        /* \"#utility.yul\":5110:5145   */\n      tag_177\n      jumpi\n        /* \"#utility.yul\":5125:5143   */\n      tag_178\n      tag_110\n      jump\t// in\n    tag_178:\n        /* \"#utility.yul\":5110:5145   */\n    tag_177:\n        /* \"#utility.yul\":5167:5168   */\n      dup3\n        /* \"#utility.yul\":5164:5165   */\n      dup3\n        /* \"#utility.yul\":5160:5169   */\n      div\n        /* \"#utility.yul\":5155:5169   */\n      swap1\n      pop\n        /* \"#utility.yul\":4990:5175   */\n      swap3\n      swap2\n      pop\n      pop\n      jump\t// out\n        /* \"#utility.yul\":5181:5286   */\n    tag_111:\n        /* \"#utility.yul\":5217:5224   */\n      0x00\n        /* \"#utility.yul\":5257:5279   */\n      0xffffffffffffffffffff\n        /* \"#utility.yul\":5250:5255   */\n      dup3\n        /* \"#utility.yul\":5246:5280   */\n      and\n        /* \"#utility.yul\":5235:5280   */\n      swap1\n      pop\n        /* \"#utility.yul\":5181:5286   */\n      swap2\n      swap1\n      pop\n      jump\t// out\n        /* \"#utility.yul\":5292:5412   */\n    tag_112:\n        /* \"#utility.yul\":5364:5387   */\n      tag_181\n        /* \"#utility.yul\":5381:5386   */\n      dup2\n        /* \"#utility.yul\":5364:5387   */\n      tag_111\n      jump\t// in\n    tag_181:\n        /* \"#utility.yul\":5357:5362   */\n      dup2\n        /* \"#utility.yul\":5354:5388   */\n      eq\n        /* \"#utility.yul\":5344:5406   */\n      tag_182\n      jumpi\n        /* \"#utility.yul\":5402:5403   */\n      0x00\n        /* \"#utility.yul\":5399:5400   */\n      0x00\n        /* \"#utility.yul\":5392:5404   */\n      revert\n        /* \"#utility.yul\":5344:5406   */\n    tag_182:\n        /* \"#utility.yul\":5292:5412   */\n      pop\n      jump\t// out\n        /* \"#utility.yul\":5418:5559   */\n    tag_113:\n        /* \"#utility.yul\":5474:5479   */\n      0x00\n        /* \"#utility.yul\":5505:5511   */\n      dup2\n        /* \"#utility.yul\":5499:5512   */\n      mload\n        /* \"#utility.yul\":5490:5512   */\n      swap1\n      pop\n        /* \"#utility.yul\":5521:5553   */\n      tag_184\n        /* \"#utility.yul\":5547:5552   */\n      dup2\n        /* \"#utility.yul\":5521:5553   */\n      tag_112\n      jump\t// in\n    tag_184:\n        /* \"#utility.yul\":5418:5559   */\n      swap3\n      swap2\n      pop\n      pop\n      jump\t// out\n        /* \"#utility.yul\":5565:5641   */\n    tag_114:\n        /* \"#utility.yul\":5601:5608   */\n      0x00\n        /* \"#utility.yul\":5630:5635   */\n      dup2\n        /* \"#utility.yul\":5619:5635   */\n      swap1\n      pop\n        /* \"#utility.yul\":5565:5641   */\n      swap2\n      swap1\n      pop\n      jump\t// out\n        /* \"#utility.yul\":5647:5767   */\n    tag_115:\n        /* \"#utility.yul\":5719:5742   */\n      tag_187\n        /* \"#utility.yul\":5736:5741   */\n      dup2\n        /* \"#utility.yul\":5719:5742   */\n      tag_114\n      jump\t// in\n    tag_187:\n        /* \"#utility.yul\":5712:5717   */\n      dup2\n        /* \"#utility.yul\":5709:5743   */\n      eq\n        /* \"#utility.yul\":5699:5761   */\n      tag_188\n      jumpi\n        /* \"#utility.yul\":5757:5758   */\n      0x00\n        /* \"#utility.yul\":5754:5755   */\n      0x00\n        /* \"#utility.yul\":5747:5759   */\n      revert\n        /* \"#utility.yul\":5699:5761   */\n    tag_188:\n        /* \"#utility.yul\":5647:5767   */\n      pop\n      jump\t// out\n        /* \"#utility.yul\":5773:5914   */\n    tag_116:\n        /* \"#utility.yul\":5829:5834   */\n      0x00\n        /* \"#utility.yul\":5860:5866   */\n      dup2\n        /* \"#utility.yul\":5854:5867   */\n      mload\n        /* \"#utility.yul\":5845:5867   */\n      swap1\n      pop\n        /* \"#utility.yul\":5876:5908   */\n      tag_190\n        /* \"#utility.yul\":5902:5907   */\n      dup2\n        /* \"#utility.yul\":5876:5908   */\n      tag_115\n      jump\t// in\n    tag_190:\n        /* \"#utility.yul\":5773:5914   */\n      swap3\n      swap2\n      pop\n      pop\n      jump\t// out\n        /* \"#utility.yul\":5920:6063   */\n    tag_117:\n        /* \"#utility.yul\":5977:5982   */\n      0x00\n        /* \"#utility.yul\":6008:6014   */\n      dup2\n        /* \"#utility.yul\":6002:6015   */\n      mload\n        /* \"#utility.yul\":5993:6015   */\n      swap1\n      pop\n        /* \"#utility.yul\":6024:6057   */\n      tag_192\n        /* \"#utility.yul\":6051:6056   */\n      dup2\n        /* \"#utility.yul\":6024:6057   */\n      tag_104\n      jump\t// in\n    tag_192:\n        /* \"#utility.yul\":5920:6063   */\n      swap3\n      swap2\n      pop\n      pop\n      jump\t// out\n        /* \"#utility.yul\":6069:7040   */\n    tag_84:\n        /* \"#utility.yul\":6172:6178   */\n      0x00\n        /* \"#utility.yul\":6180:6186   */\n      0x00\n        /* \"#utility.yul\":6188:6194   */\n      0x00\n        /* \"#utility.yul\":6196:6202   */\n      0x00\n        /* \"#utility.yul\":6204:6210   */\n      0x00\n        /* \"#utility.yul\":6253:6256   */\n      0xa0\n        /* \"#utility.yul\":6241:6250   */\n      dup7\n        /* \"#utility.yul\":6232:6239   */\n      dup9\n        /* \"#utility.yul\":6228:6251   */\n      sub\n        /* \"#utility.yul\":6224:6257   */\n      slt\n        /* \"#utility.yul\":6221:6341   */\n      iszero\n      tag_194\n      jumpi\n        /* \"#utility.yul\":6260:6339   */\n      tag_195\n      tag_97\n      jump\t// in\n    tag_195:\n        /* \"#utility.yul\":6221:6341   */\n    tag_194:\n        /* \"#utility.yul\":6380:6381   */\n      0x00\n        /* \"#utility.yul\":6405:6468   */\n      tag_196\n        /* \"#utility.yul\":6460:6467   */\n      dup9\n        /* \"#utility.yul\":6451:6457   */\n      dup3\n        /* \"#utility.yul\":6440:6449   */\n      dup10\n        /* \"#utility.yul\":6436:6458   */\n      add\n        /* \"#utility.yul\":6405:6468   */\n      tag_113\n      jump\t// in\n    tag_196:\n        /* \"#utility.yul\":6395:6468   */\n      swap6\n      pop\n        /* \"#utility.yul\":6351:6478   */\n      pop\n        /* \"#utility.yul\":6517:6519   */\n      0x20\n        /* \"#utility.yul\":6543:6606   */\n      tag_197\n        /* \"#utility.yul\":6598:6605   */\n      dup9\n        /* \"#utility.yul\":6589:6595   */\n      dup3\n        /* \"#utility.yul\":6578:6587   */\n      dup10\n        /* \"#utility.yul\":6574:6596   */\n      add\n        /* \"#utility.yul\":6543:6606   */\n      tag_116\n      jump\t// in\n    tag_197:\n        /* \"#utility.yul\":6533:6606   */\n      swap5\n      pop\n        /* \"#utility.yul\":6488:6616   */\n      pop\n        /* \"#utility.yul\":6655:6657   */\n      0x40\n        /* \"#utility.yul\":6681:6745   */\n      tag_198\n        /* \"#utility.yul\":6737:6744   */\n      dup9\n        /* \"#utility.yul\":6728:6734   */\n      dup3\n        /* \"#utility.yul\":6717:6726   */\n      dup10\n        /* \"#utility.yul\":6713:6735   */\n      add\n        /* \"#utility.yul\":6681:6745   */\n      tag_117\n      jump\t// in\n    tag_198:\n        /* \"#utility.yul\":6671:6745   */\n      swap4\n      pop\n        /* \"#utility.yul\":6626:6755   */\n      pop\n        /* \"#utility.yul\":6794:6796   */\n      0x60\n        /* \"#utility.yul\":6820:6884   */\n      tag_199\n        /* \"#utility.yul\":6876:6883   */\n      dup9\n        /* \"#utility.yul\":6867:6873   */\n      dup3\n        /* \"#utility.yul\":6856:6865   */\n      dup10\n        /* \"#utility.yul\":6852:6874   */\n      add\n        /* \"#utility.yul\":6820:6884   */\n      tag_117\n      jump\t// in\n    tag_199:\n        /* \"#utility.yul\":6810:6884   */\n      swap3\n      pop\n        /* \"#utility.yul\":6765:6894   */\n      pop\n        /* \"#utility.yul\":6933:6936   */\n      0x80\n        /* \"#utility.yul\":6960:7023   */\n      tag_200\n        /* \"#utility.yul\":7015:7022   */\n      dup9\n        /* \"#utility.yul\":7006:7012   */\n      dup3\n        /* \"#utility.yul\":6995:7004   */\n      dup10\n        /* \"#utility.yul\":6991:7013   */\n      add\n        /* \"#utility.yul\":6960:7023   */\n      tag_113\n      jump\t// in\n    tag_200:\n        /* \"#utility.yul\":6950:7023   */\n      swap2\n      pop\n        /* \"#utility.yul\":6904:7033   */\n      pop\n        /* \"#utility.yul\":6069:7040   */\n      swap3\n      swap6\n      pop\n      swap3\n      swap6\n      swap1\n      swap4\n      pop\n      jump\t// out\n        /* \"#utility.yul\":7046:7602   */\n    tag_86:\n        /* \"#utility.yul\":7085:7092   */\n      0x00\n        /* \"#utility.yul\":7108:7127   */\n      tag_202\n        /* \"#utility.yul\":7125:7126   */\n      dup3\n        /* \"#utility.yul\":7108:7127   */\n      tag_114\n      jump\t// in\n    tag_202:\n        /* \"#utility.yul\":7103:7127   */\n      swap2\n      pop\n        /* \"#utility.yul\":7141:7160   */\n      tag_203\n        /* \"#utility.yul\":7158:7159   */\n      dup4\n        /* \"#utility.yul\":7141:7160   */\n      tag_114\n      jump\t// in\n    tag_203:\n        /* \"#utility.yul\":7136:7160   */\n      swap3\n      pop\n        /* \"#utility.yul\":7195:7196   */\n      dup3\n        /* \"#utility.yul\":7192:7193   */\n      dup3\n        /* \"#utility.yul\":7188:7197   */\n      mul\n        /* \"#utility.yul\":7217:7246   */\n      tag_204\n        /* \"#utility.yul\":7234:7245   */\n      dup2\n        /* \"#utility.yul\":7217:7246   */\n      tag_114\n      jump\t// in\n    tag_204:\n        /* \"#utility.yul\":7206:7246   */\n      swap2\n      pop\n        /* \"#utility.yul\":7304:7370   */\n      0x8000000000000000000000000000000000000000000000000000000000000000\n        /* \"#utility.yul\":7301:7302   */\n      dup5\n        /* \"#utility.yul\":7298:7371   */\n      eq\n        /* \"#utility.yul\":7294:7295   */\n      0x00\n        /* \"#utility.yul\":7291:7292   */\n      dup5\n        /* \"#utility.yul\":7287:7296   */\n      slt\n        /* \"#utility.yul\":7283:7372   */\n      and\n        /* \"#utility.yul\":7280:7395   */\n      iszero\n      tag_205\n      jumpi\n        /* \"#utility.yul\":7375:7393   */\n      tag_206\n      tag_106\n      jump\t// in\n    tag_206:\n        /* \"#utility.yul\":7280:7395   */\n    tag_205:\n        /* \"#utility.yul\":7545:7546   */\n      dup3\n        /* \"#utility.yul\":7536:7543   */\n      dup3\n        /* \"#utility.yul\":7531:7547   */\n      sdiv\n        /* \"#utility.yul\":7528:7529   */\n      dup5\n        /* \"#utility.yul\":7525:7548   */\n      eq\n        /* \"#utility.yul\":7505:7506   */\n      dup4\n        /* \"#utility.yul\":7498:7507   */\n      iszero\n        /* \"#utility.yul\":7478:7562   */\n      or\n        /* \"#utility.yul\":7455:7595   */\n      tag_207\n      jumpi\n        /* \"#utility.yul\":7575:7593   */\n      tag_208\n      tag_106\n      jump\t// in\n    tag_208:\n        /* \"#utility.yul\":7455:7595   */\n    tag_207:\n        /* \"#utility.yul\":7093:7602   */\n      pop\n        /* \"#utility.yul\":7046:7602   */\n      swap3\n      swap2\n      pop\n      pop\n      jump\t// out\n\n    auxdata: 0xa2646970667358221220bd472b518eacb380a82ab293650a867d1d9cdd7f12c8b57e85bb5d6eb3cf723564736f6c634300081e0033\n}\n",
				"bytecode": {
					"linkReferences": {},
					"object": "60a0604052348015600e575f5ffd5b503373ffffffffffffffffffffffffffffffffffffffff1660808173ffffffffffffffffffffffffffffffffffffffff1681525050608051610afc6100625f395f818161026901526104a80152610afc5ff3fe608060405260043610610058575f3560e01c8063098de820146100715780633ccfd60b1461009b5780633e47d6f3146100b1578063b60d4288146100ed578063dba6335f146100f7578063dc0d3dff1461012157610067565b366100675761006561015d565b005b61006f61015d565b005b34801561007c575f5ffd5b5061008561025b565b604051610092919061069b565b60405180910390f35b3480156100a6575f5ffd5b506100af610267565b005b3480156100bc575f5ffd5b506100d760048036038101906100d29190610712565b610491565b6040516100e4919061069b565b60405180910390f35b6100f561015d565b005b348015610102575f5ffd5b5061010b6104a6565b604051610118919061074c565b60405180910390f35b34801561012c575f5ffd5b506101476004803603810190610142919061078f565b6104ca565b604051610154919061074c565b60405180910390f35b674563918244f4000061016f34610504565b10156101a7576040517fa01a9df600000000000000000000000000000000000000000000000000000000815260040160405180910390fd5b5f33908060018154018082558091505060019003905f5260205f20015f9091909190916101000a81548173ffffffffffffffffffffffffffffffffffffffff021916908373ffffffffffffffffffffffffffffffffffffffff1602179055503460015f3373ffffffffffffffffffffffffffffffffffffffff1673ffffffffffffffffffffffffffffffffffffffff1681526020019081526020015f205f82825461025291906107e7565b92505081905550565b674563918244f4000081565b7f000000000000000000000000000000000000000000000000000000000000000073ffffffffffffffffffffffffffffffffffffffff163373ffffffffffffffffffffffffffffffffffffffff16146102ec576040517f251c9d6300000000000000000000000000000000000000000000000000000000815260040160405180910390fd5b5f5f8054905090505f5f90505b8181101561038f575f5f82815481106103155761031461081a565b5b905f5260205f20015f9054906101000a900473ffffffffffffffffffffffffffffffffffffffff1690505f60015f8373ffffffffffffffffffffffffffffffffffffffff1673ffffffffffffffffffffffffffffffffffffffff1681526020019081526020015f20819055505080806001019150506102f9565b505f67ffffffffffffffff8111156103aa576103a9610847565b5b6040519080825280602002602001820160405280156103d85781602001602082028036833780820191505090505b505f90805190602001906103ed9291906105e1565b505f3373ffffffffffffffffffffffffffffffffffffffff1647604051610413906108a1565b5f6040518083038185875af1925050503d805f811461044d576040519150601f19603f3d011682016040523d82523d5f602084013e610452565b606091505b505090508061048d576040517f90b8ec1800000000000000000000000000000000000000000000000000000000815260040160405180910390fd5b5050565b6001602052805f5260405f205f915090505481565b7f000000000000000000000000000000000000000000000000000000000000000081565b5f81815481106104d8575f80fd5b905f5260205f20015f915054906101000a900473ffffffffffffffffffffffffffffffffffffffff1681565b5f5f61050e61053c565b90505f670de0b6b3a7640000848361052691906108b5565b6105309190610923565b90508092505050919050565b5f5f73694aa1769357215de4fac081bf1f309adc32530690505f8173ffffffffffffffffffffffffffffffffffffffff1663feaf968c6040518163ffffffff1660e01b815260040160a060405180830381865afa15801561059f573d5f5f3e3d5ffd5b505050506040513d601f19601f820116820180604052508101906105c391906109d9565b5050509150506402540be400816105da9190610a50565b9250505090565b828054828255905f5260205f20908101928215610657579160200282015b82811115610656578251825f6101000a81548173ffffffffffffffffffffffffffffffffffffffff021916908373ffffffffffffffffffffffffffffffffffffffff160217905550916020019190600101906105ff565b5b5090506106649190610668565b5090565b5b8082111561067f575f815f905550600101610669565b5090565b5f819050919050565b61069581610683565b82525050565b5f6020820190506106ae5f83018461068c565b92915050565b5f5ffd5b5f73ffffffffffffffffffffffffffffffffffffffff82169050919050565b5f6106e1826106b8565b9050919050565b6106f1816106d7565b81146106fb575f5ffd5b50565b5f8135905061070c816106e8565b92915050565b5f60208284031215610727576107266106b4565b5b5f610734848285016106fe565b91505092915050565b610746816106d7565b82525050565b5f60208201905061075f5f83018461073d565b92915050565b61076e81610683565b8114610778575f5ffd5b50565b5f8135905061078981610765565b92915050565b5f602082840312156107a4576107a36106b4565b5b5f6107b18482850161077b565b91505092915050565b7f4e487b71000000000000000000000000000000000000000000000000000000005f52601160045260245ffd5b5f6107f182610683565b91506107fc83610683565b9250828201905080821115610814576108136107ba565b5b92915050565b7f4e487b71000000000000000000000000000000000000000000000000000000005f52603260045260245ffd5b7f4e487b71000000000000000000000000000000000000000000000000000000005f52604160045260245ffd5b5f81905092915050565b50565b5f61088c5f83610874565b91506108978261087e565b5f82019050919050565b5f6108ab82610881565b9150819050919050565b5f6108bf82610683565b91506108ca83610683565b92508282026108d881610683565b915082820484148315176108ef576108ee6107ba565b5b5092915050565b7f4e487b71000000000000000000000000000000000000000000000000000000005f52601260045260245ffd5b5f61092d82610683565b915061093883610683565b925082610948576109476108f6565b5b828204905092915050565b5f69ffffffffffffffffffff82169050919050565b61097181610953565b811461097b575f5ffd5b50565b5f8151905061098c81610968565b92915050565b5f819050919050565b6109a481610992565b81146109ae575f5ffd5b50565b5f815190506109bf8161099b565b92915050565b5f815190506109d381610765565b92915050565b5f5f5f5f5f60a086880312156109f2576109f16106b4565b5b5f6109ff8882890161097e565b9550506020610a10888289016109b1565b9450506040610a21888289016109c5565b9350506060610a32888289016109c5565b9250506080610a438882890161097e565b9150509295509295909350565b5f610a5a82610992565b9150610a6583610992565b9250828202610a7381610992565b91507f800000000000000000000000000000000000000000000000000000000000000084145f84121615610aaa57610aa96107ba565b5b8282058414831517610abf57610abe6107ba565b5b509291505056fea2646970667358221220bd472b518eacb380a82ab293650a867d1d9cdd7f12c8b57e85bb5d6eb3cf723564736f6c634300081e0033",
					"opcodes": "PUSH1 0xA0 PUSH1 0x40 MSTORE CALLVALUE DUP1 ISZERO PUSH1 0xE JUMPI PUSH0 PUSH0 REVERT JUMPDEST POP CALLER PUSH20 0xFFFFFFFFFFFFFFFFFFFFFFFFFFFFFFFFFFFFFFFF AND PUSH1 0x80 DUP2 PUSH20 0xFFFFFFFFFFFFFFFFFFFFFFFFFFFFFFFFFFFFFFFF AND DUP2 MSTORE POP POP PUSH1 0x80 MLOAD PUSH2 0xAFC PUSH2 0x62 PUSH0 CODECOPY PUSH0 DUP2 DUP2 PUSH2 0x269 ADD MSTORE PUSH2 0x4A8 ADD MSTORE PUSH2 0xAFC PUSH0 RETURN INVALID PUSH1 0x80 PUSH1 0x40 MSTORE PUSH1 0x4 CALLDATASIZE LT PUSH2 0x58 JUMPI PUSH0 CALLDATALOAD PUSH1 0xE0 SHR DUP1 PUSH4 0x98DE820 EQ PUSH2 0x71 JUMPI DUP1 PUSH4 0x3CCFD60B EQ PUSH2 0x9B JUMPI DUP1 PUSH4 0x3E47D6F3 EQ PUSH2 0xB1 JUMPI DUP1 PUSH4 0xB60D4288 EQ PUSH2 0xED JUMPI DUP1 PUSH4 0xDBA6335F EQ PUSH2 0xF7 JUMPI DUP1 PUSH4 0xDC0D3DFF EQ PUSH2 0x121 JUMPI PUSH2 0x67 JUMP JUMPDEST CALLDATASIZE PUSH2 0x67 JUMPI PUSH2 0x65 PUSH2 0x15D JUMP JUMPDEST STOP JUMPDEST PUSH2 0x6F PUSH2 0x15D JUMP JUMPDEST STOP JUMPDEST CALLVALUE DUP1 ISZERO PUSH2 0x7C JUMPI PUSH0 PUSH0 REVERT JUMPDEST POP PUSH2 0x85 PUSH2 0x25B JUMP JUMPDEST PUSH1 0x40 MLOAD PUSH2 0x92 SWAP2 SWAP1 PUSH2 0x69B JUMP JUMPDEST PUSH1 0x40 MLOAD DUP1 SWAP2 SUB SWAP1 RETURN JUMPDEST CALLVALUE DUP1 ISZERO PUSH2 0xA6 JUMPI PUSH0 PUSH0 REVERT JUMPDEST POP PUSH2 0xAF PUSH2 0x267 JUMP JUMPDEST STOP JUMPDEST CALLVALUE DUP1 ISZERO PUSH2 0xBC JUMPI PUSH0 PUSH0 REVERT JUMPDEST POP PUSH2 0xD7 PUSH1 0x4 DUP1 CALLDATASIZE SUB DUP2 ADD SWAP1 PUSH2 0xD2 SWAP2 SWAP1 PUSH2 0x712 JUMP JUMPDEST PUSH2 0x491 JUMP JUMPDEST PUSH1 0x40 MLOAD PUSH2 0xE4 SWAP2 SWAP1 PUSH2 0x69B JUMP JUMPDEST PUSH1 0x40 MLOAD DUP1 SWAP2 SUB SWAP1 RETURN JUMPDEST PUSH2 0xF5 PUSH2 0x15D JUMP JUMPDEST STOP JUMPDEST CALLVALUE DUP1 ISZERO PUSH2 0x102 JUMPI PUSH0 PUSH0 REVERT JUMPDEST POP PUSH2 0x10B PUSH2 0x4A6 JUMP JUMPDEST PUSH1 0x40 MLOAD PUSH2 0x118 SWAP2 SWAP1 PUSH2 0x74C JUMP JUMPDEST PUSH1 0x40 MLOAD DUP1 SWAP2 SUB SWAP1 RETURN JUMPDEST CALLVALUE DUP1 ISZERO PUSH2 0x12C JUMPI PUSH0 PUSH0 REVERT JUMPDEST POP PUSH2 0x147 PUSH1 0x4 DUP1 CALLDATASIZE SUB DUP2 ADD SWAP1 PUSH2 0x142 SWAP2 SWAP1 PUSH2 0x78F JUMP JUMPDEST PUSH2 0x4CA JUMP JUMPDEST PUSH1 0x40 MLOAD PUSH2 0x154 SWAP2 SWAP1 PUSH2 0x74C JUMP JUMPDEST PUSH1 0x40 MLOAD DUP1 SWAP2 SUB SWAP1 RETURN JUMPDEST PUSH8 0x4563918244F40000 PUSH2 0x16F CALLVALUE PUSH2 0x504 JUMP JUMPDEST LT ISZERO PUSH2 0x1A7 JUMPI PUSH1 0x40 MLOAD PUSH32 0xA01A9DF600000000000000000000000000000000000000000000000000000000 DUP2 MSTORE PUSH1 0x4 ADD PUSH1 0x40 MLOAD DUP1 SWAP2 SUB SWAP1 REVERT JUMPDEST PUSH0 CALLER SWAP1 DUP1 PUSH1 0x1 DUP2 SLOAD ADD DUP1 DUP3 SSTORE DUP1 SWAP2 POP POP PUSH1 0x1 SWAP1 SUB SWAP1 PUSH0 MSTORE PUSH1 0x20 PUSH0 KECCAK256 ADD PUSH0 SWAP1 SWAP2 SWAP1 SWAP2 SWAP1 SWAP2 PUSH2 0x100 EXP DUP2 SLOAD DUP2 PUSH20 0xFFFFFFFFFFFFFFFFFFFFFFFFFFFFFFFFFFFFFFFF MUL NOT AND SWAP1 DUP4 PUSH20 0xFFFFFFFFFFFFFFFFFFFFFFFFFFFFFFFFFFFFFFFF AND MUL OR SWAP1 SSTORE POP CALLVALUE PUSH1 0x1 PUSH0 CALLER PUSH20 0xFFFFFFFFFFFFFFFFFFFFFFFFFFFFFFFFFFFFFFFF AND PUSH20 0xFFFFFFFFFFFFFFFFFFFFFFFFFFFFFFFFFFFFFFFF AND DUP2 MSTORE PUSH1 0x20 ADD SWAP1 DUP2 MSTORE PUSH1 0x20 ADD PUSH0 KECCAK256 PUSH0 DUP3 DUP3 SLOAD PUSH2 0x252 SWAP2 SWAP1 PUSH2 0x7E7 JUMP JUMPDEST SWAP3 POP POP DUP2 SWAP1 SSTORE POP JUMP JUMPDEST PUSH8 0x4563918244F40000 DUP2 JUMP JUMPDEST PUSH32 0x0 PUSH20 0xFFFFFFFFFFFFFFFFFFFFFFFFFFFFFFFFFFFFFFFF AND CALLER PUSH20 0xFFFFFFFFFFFFFFFFFFFFFFFFFFFFFFFFFFFFFFFF AND EQ PUSH2 0x2EC JUMPI PUSH1 0x40 MLOAD PUSH32 0x251C9D6300000000000000000000000000000000000000000000000000000000 DUP2 MSTORE PUSH1 0x4 ADD PUSH1 0x40 MLOAD DUP1 SWAP2 SUB SWAP1 REVERT JUMPDEST PUSH0 PUSH0 DUP1 SLOAD SWAP1 POP SWAP1 POP PUSH0 PUSH0 SWAP1 POP JUMPDEST DUP2 DUP2 LT ISZERO PUSH2 0x38F JUMPI PUSH0 PUSH0 DUP3 DUP2 SLOAD DUP2 LT PUSH2 0x315 JUMPI PUSH2 0x314 PUSH2 0x81A JUMP JUMPDEST JUMPDEST SWAP1 PUSH0 MSTORE PUSH1 0x20 PUSH0 KECCAK256 ADD PUSH0 SWAP1 SLOAD SWAP1 PUSH2 0x100 EXP SWAP1 DIV PUSH20 0xFFFFFFFFFFFFFFFFFFFFFFFFFFFFFFFFFFFFFFFF AND SWAP1 POP PUSH0 PUSH1 0x1 PUSH0 DUP4 PUSH20 0xFFFFFFFFFFFFFFFFFFFFFFFFFFFFFFFFFFFFFFFF AND PUSH20 0xFFFFFFFFFFFFFFFFFFFFFFFFFFFFFFFFFFFFFFFF AND DUP2 MSTORE PUSH1 0x20 ADD SWAP1 DUP2 MSTORE PUSH1 0x20 ADD PUSH0 KECCAK256 DUP2 SWAP1 SSTORE POP POP DUP1 DUP1 PUSH1 0x1 ADD SWAP2 POP POP PUSH2 0x2F9 JUMP JUMPDEST POP PUSH0 PUSH8 0xFFFFFFFFFFFFFFFF DUP2 GT ISZERO PUSH2 0x3AA JUMPI PUSH2 0x3A9 PUSH2 0x847 JUMP JUMPDEST JUMPDEST PUSH1 0x40 MLOAD SWAP1 DUP1 DUP3 MSTORE DUP1 PUSH1 0x20 MUL PUSH1 0x20 ADD DUP3 ADD PUSH1 0x40 MSTORE DUP1 ISZERO PUSH2 0x3D8 JUMPI DUP2 PUSH1 0x20 ADD PUSH1 0x20 DUP3 MUL DUP1 CALLDATASIZE DUP4 CALLDATACOPY DUP1 DUP3 ADD SWAP2 POP POP SWAP1 POP JUMPDEST POP PUSH0 SWAP1 DUP1 MLOAD SWAP1 PUSH1 0x20 ADD SWAP1 PUSH2 0x3ED SWAP3 SWAP2 SWAP1 PUSH2 0x5E1 JUMP JUMPDEST POP PUSH0 CALLER PUSH20 0xFFFFFFFFFFFFFFFFFFFFFFFFFFFFFFFFFFFFFFFF AND SELFBALANCE PUSH1 0x40 MLOAD PUSH2 0x413 SWAP1 PUSH2 0x8A1 JUMP JUMPDEST PUSH0 PUSH1 0x40 MLOAD DUP1 DUP4 SUB DUP2 DUP6 DUP8 GAS CALL SWAP3 POP POP POP RETURNDATASIZE DUP1 PUSH0 DUP2 EQ PUSH2 0x44D JUMPI PUSH1 0x40 MLOAD SWAP2 POP PUSH1 0x1F NOT PUSH1 0x3F RETURNDATASIZE ADD AND DUP3 ADD PUSH1 0x40 MSTORE RETURNDATASIZE DUP3 MSTORE RETURNDATASIZE PUSH0 PUSH1 0x20 DUP5 ADD RETURNDATACOPY PUSH2 0x452 JUMP JUMPDEST PUSH1 0x60 SWAP2 POP JUMPDEST POP POP SWAP1 POP DUP1 PUSH2 0x48D JUMPI PUSH1 0x40 MLOAD PUSH32 0x90B8EC1800000000000000000000000000000000000000000000000000000000 DUP2 MSTORE PUSH1 0x4 ADD PUSH1 0x40 MLOAD DUP1 SWAP2 SUB SWAP1 REVERT JUMPDEST POP POP JUMP JUMPDEST PUSH1 0x1 PUSH1 0x20 MSTORE DUP1 PUSH0 MSTORE PUSH1 0x40 PUSH0 KECCAK256 PUSH0 SWAP2 POP SWAP1 POP SLOAD DUP2 JUMP JUMPDEST PUSH32 0x0 DUP2 JUMP JUMPDEST PUSH0 DUP2 DUP2 SLOAD DUP2 LT PUSH2 0x4D8 JUMPI PUSH0 DUP1 REVERT JUMPDEST SWAP1 PUSH0 MSTORE PUSH1 0x20 PUSH0 KECCAK256 ADD PUSH0 SWAP2 POP SLOAD SWAP1 PUSH2 0x100 EXP SWAP1 DIV PUSH20 0xFFFFFFFFFFFFFFFFFFFFFFFFFFFFFFFFFFFFFFFF AND DUP2 JUMP JUMPDEST PUSH0 PUSH0 PUSH2 0x50E PUSH2 0x53C JUMP JUMPDEST SWAP1 POP PUSH0 PUSH8 0xDE0B6B3A7640000 DUP5 DUP4 PUSH2 0x526 SWAP2 SWAP1 PUSH2 0x8B5 JUMP JUMPDEST PUSH2 0x530 SWAP2 SWAP1 PUSH2 0x923 JUMP JUMPDEST SWAP1 POP DUP1 SWAP3 POP POP POP SWAP2 SWAP1 POP JUMP JUMPDEST PUSH0 PUSH0 PUSH20 0x694AA1769357215DE4FAC081BF1F309ADC325306 SWAP1 POP PUSH0 DUP2 PUSH20 0xFFFFFFFFFFFFFFFFFFFFFFFFFFFFFFFFFFFFFFFF AND PUSH4 0xFEAF968C PUSH1 0x40 MLOAD DUP2 PUSH4 0xFFFFFFFF AND PUSH1 0xE0 SHL DUP2 MSTORE PUSH1 0x4 ADD PUSH1 0xA0 PUSH1 0x40 MLOAD DUP1 DUP4 SUB DUP2 DUP7 GAS STATICCALL ISZERO DUP1 ISZERO PUSH2 0x59F JUMPI RETURNDATASIZE PUSH0 PUSH0 RETURNDATACOPY RETURNDATASIZE PUSH0 REVERT JUMPDEST POP POP POP POP PUSH1 0x40 MLOAD RETURNDATASIZE PUSH1 0x1F NOT PUSH1 0x1F DUP3 ADD AND DUP3 ADD DUP1 PUSH1 0x40 MSTORE POP DUP2 ADD SWAP1 PUSH2 0x5C3 SWAP2 SWAP1 PUSH2 0x9D9 JUMP JUMPDEST POP POP POP SWAP2 POP POP PUSH5 0x2540BE400 DUP2 PUSH2 0x5DA SWAP2 SWAP1 PUSH2 0xA50 JUMP JUMPDEST SWAP3 POP POP POP SWAP1 JUMP JUMPDEST DUP3 DUP1 SLOAD DUP3 DUP3 SSTORE SWAP1 PUSH0 MSTORE PUSH1 0x20 PUSH0 KECCAK256 SWAP1 DUP2 ADD SWAP3 DUP3 ISZERO PUSH2 0x657 JUMPI SWAP2 PUSH1 0x20 MUL DUP3 ADD JUMPDEST DUP3 DUP2 GT ISZERO PUSH2 0x656 JUMPI DUP3 MLOAD DUP3 PUSH0 PUSH2 0x100 EXP DUP2 SLOAD DUP2 PUSH20 0xFFFFFFFFFFFFFFFFFFFFFFFFFFFFFFFFFFFFFFFF MUL NOT AND SWAP1 DUP4 PUSH20 0xFFFFFFFFFFFFFFFFFFFFFFFFFFFFFFFFFFFFFFFF AND MUL OR SWAP1 SSTORE POP SWAP2 PUSH1 0x20 ADD SWAP2 SWAP1 PUSH1 0x1 ADD SWAP1 PUSH2 0x5FF JUMP JUMPDEST JUMPDEST POP SWAP1 POP PUSH2 0x664 SWAP2 SWAP1 PUSH2 0x668 JUMP JUMPDEST POP SWAP1 JUMP JUMPDEST JUMPDEST DUP1 DUP3 GT ISZERO PUSH2 0x67F JUMPI PUSH0 DUP2 PUSH0 SWAP1 SSTORE POP PUSH1 0x1 ADD PUSH2 0x669 JUMP JUMPDEST POP SWAP1 JUMP JUMPDEST PUSH0 DUP2 SWAP1 POP SWAP2 SWAP1 POP JUMP JUMPDEST PUSH2 0x695 DUP2 PUSH2 0x683 JUMP JUMPDEST DUP3 MSTORE POP POP JUMP JUMPDEST PUSH0 PUSH1 0x20 DUP3 ADD SWAP1 POP PUSH2 0x6AE PUSH0 DUP4 ADD DUP5 PUSH2 0x68C JUMP JUMPDEST SWAP3 SWAP2 POP POP JUMP JUMPDEST PUSH0 PUSH0 REVERT JUMPDEST PUSH0 PUSH20 0xFFFFFFFFFFFFFFFFFFFFFFFFFFFFFFFFFFFFFFFF DUP3 AND SWAP1 POP SWAP2 SWAP1 POP JUMP JUMPDEST PUSH0 PUSH2 0x6E1 DUP3 PUSH2 0x6B8 JUMP JUMPDEST SWAP1 POP SWAP2 SWAP1 POP JUMP JUMPDEST PUSH2 0x6F1 DUP2 PUSH2 0x6D7 JUMP JUMPDEST DUP2 EQ PUSH2 0x6FB JUMPI PUSH0 PUSH0 REVERT JUMPDEST POP JUMP JUMPDEST PUSH0 DUP2 CALLDATALOAD SWAP1 POP PUSH2 0x70C DUP2 PUSH2 0x6E8 JUMP JUMPDEST SWAP3 SWAP2 POP POP JUMP JUMPDEST PUSH0 PUSH1 0x20 DUP3 DUP5 SUB SLT ISZERO PUSH2 0x727 JUMPI PUSH2 0x726 PUSH2 0x6B4 JUMP JUMPDEST JUMPDEST PUSH0 PUSH2 0x734 DUP5 DUP3 DUP6 ADD PUSH2 0x6FE JUMP JUMPDEST SWAP2 POP POP SWAP3 SWAP2 POP POP JUMP JUMPDEST PUSH2 0x746 DUP2 PUSH2 0x6D7 JUMP JUMPDEST DUP3 MSTORE POP POP JUMP JUMPDEST PUSH0 PUSH1 0x20 DUP3 ADD SWAP1 POP PUSH2 0x75F PUSH0 DUP4 ADD DUP5 PUSH2 0x73D JUMP JUMPDEST SWAP3 SWAP2 POP POP JUMP JUMPDEST PUSH2 0x76E DUP2 PUSH2 0x683 JUMP JUMPDEST DUP2 EQ PUSH2 0x778 JUMPI PUSH0 PUSH0 REVERT JUMPDEST POP JUMP JUMPDEST PUSH0 DUP2 CALLDATALOAD SWAP1 POP PUSH2 0x789 DUP2 PUSH2 0x765 JUMP JUMPDEST SWAP3 SWAP2 POP POP JUMP JUMPDEST PUSH0 PUSH1 0x20 DUP3 DUP5 SUB SLT ISZERO PUSH2 0x7A4 JUMPI PUSH2 0x7A3 PUSH2 0x6B4 JUMP JUMPDEST JUMPDEST PUSH0 PUSH2 0x7B1 DUP5 DUP3 DUP6 ADD PUSH2 0x77B JUMP JUMPDEST SWAP2 POP POP SWAP3 SWAP2 POP POP JUMP JUMPDEST PUSH32 0x4E487B7100000000000000000000000000000000000000000000000000000000 PUSH0 MSTORE PUSH1 0x11 PUSH1 0x4 MSTORE PUSH1 0x24 PUSH0 REVERT JUMPDEST PUSH0 PUSH2 0x7F1 DUP3 PUSH2 0x683 JUMP JUMPDEST SWAP2 POP PUSH2 0x7FC DUP4 PUSH2 0x683 JUMP JUMPDEST SWAP3 POP DUP3 DUP3 ADD SWAP1 POP DUP1 DUP3 GT ISZERO PUSH2 0x814 JUMPI PUSH2 0x813 PUSH2 0x7BA JUMP JUMPDEST JUMPDEST SWAP3 SWAP2 POP POP JUMP JUMPDEST PUSH32 0x4E487B7100000000000000000000000000000000000000000000000000000000 PUSH0 MSTORE PUSH1 0x32 PUSH1 0x4 MSTORE PUSH1 0x24 PUSH0 REVERT JUMPDEST PUSH32 0x4E487B7100000000000000000000000000000000000000000000000000000000 PUSH0 MSTORE PUSH1 0x41 PUSH1 0x4 MSTORE PUSH1 0x24 PUSH0 REVERT JUMPDEST PUSH0 DUP2 SWAP1 POP SWAP3 SWAP2 POP POP JUMP JUMPDEST POP JUMP JUMPDEST PUSH0 PUSH2 0x88C PUSH0 DUP4 PUSH2 0x874 JUMP JUMPDEST SWAP2 POP PUSH2 0x897 DUP3 PUSH2 0x87E JUMP JUMPDEST PUSH0 DUP3 ADD SWAP1 POP SWAP2 SWAP1 POP JUMP JUMPDEST PUSH0 PUSH2 0x8AB DUP3 PUSH2 0x881 JUMP JUMPDEST SWAP2 POP DUP2 SWAP1 POP SWAP2 SWAP1 POP JUMP JUMPDEST PUSH0 PUSH2 0x8BF DUP3 PUSH2 0x683 JUMP JUMPDEST SWAP2 POP PUSH2 0x8CA DUP4 PUSH2 0x683 JUMP JUMPDEST SWAP3 POP DUP3 DUP3 MUL PUSH2 0x8D8 DUP2 PUSH2 0x683 JUMP JUMPDEST SWAP2 POP DUP3 DUP3 DIV DUP5 EQ DUP4 ISZERO OR PUSH2 0x8EF JUMPI PUSH2 0x8EE PUSH2 0x7BA JUMP JUMPDEST JUMPDEST POP SWAP3 SWAP2 POP POP JUMP JUMPDEST PUSH32 0x4E487B7100000000000000000000000000000000000000000000000000000000 PUSH0 MSTORE PUSH1 0x12 PUSH1 0x4 MSTORE PUSH1 0x24 PUSH0 REVERT JUMPDEST PUSH0 PUSH2 0x92D DUP3 PUSH2 0x683 JUMP JUMPDEST SWAP2 POP PUSH2 0x938 DUP4 PUSH2 0x683 JUMP JUMPDEST SWAP3 POP DUP3 PUSH2 0x948 JUMPI PUSH2 0x947 PUSH2 0x8F6 JUMP JUMPDEST JUMPDEST DUP3 DUP3 DIV SWAP1 POP SWAP3 SWAP2 POP POP JUMP JUMPDEST PUSH0 PUSH10 0xFFFFFFFFFFFFFFFFFFFF DUP3 AND SWAP1 POP SWAP2 SWAP1 POP JUMP JUMPDEST PUSH2 0x971 DUP2 PUSH2 0x953 JUMP JUMPDEST DUP2 EQ PUSH2 0x97B JUMPI PUSH0 PUSH0 REVERT JUMPDEST POP JUMP JUMPDEST PUSH0 DUP2 MLOAD SWAP1 POP PUSH2 0x98C DUP2 PUSH2 0x968 JUMP JUMPDEST SWAP3 SWAP2 POP POP JUMP JUMPDEST PUSH0 DUP2 SWAP1 POP SWAP2 SWAP1 POP JUMP JUMPDEST PUSH2 0x9A4 DUP2 PUSH2 0x992 JUMP JUMPDEST DUP2 EQ PUSH2 0x9AE JUMPI PUSH0 PUSH0 REVERT JUMPDEST POP JUMP JUMPDEST PUSH0 DUP2 MLOAD SWAP1 POP PUSH2 0x9BF DUP2 PUSH2 0x99B JUMP JUMPDEST SWAP3 SWAP2 POP POP JUMP JUMPDEST PUSH0 DUP2 MLOAD SWAP1 POP PUSH2 0x9D3 DUP2 PUSH2 0x765 JUMP JUMPDEST SWAP3 SWAP2 POP POP JUMP JUMPDEST PUSH0 PUSH0 PUSH0 PUSH0 PUSH0 PUSH1 0xA0 DUP7 DUP9 SUB SLT ISZERO PUSH2 0x9F2 JUMPI PUSH2 0x9F1 PUSH2 0x6B4 JUMP JUMPDEST JUMPDEST PUSH0 PUSH2 0x9FF DUP9 DUP3 DUP10 ADD PUSH2 0x97E JUMP JUMPDEST SWAP6 POP POP PUSH1 0x20 PUSH2 0xA10 DUP9 DUP3 DUP10 ADD PUSH2 0x9B1 JUMP JUMPDEST SWAP5 POP POP PUSH1 0x40 PUSH2 0xA21 DUP9 DUP3 DUP10 ADD PUSH2 0x9C5 JUMP JUMPDEST SWAP4 POP POP PUSH1 0x60 PUSH2 0xA32 DUP9 DUP3 DUP10 ADD PUSH2 0x9C5 JUMP JUMPDEST SWAP3 POP POP PUSH1 0x80 PUSH2 0xA43 DUP9 DUP3 DUP10 ADD PUSH2 0x97E JUMP JUMPDEST SWAP2 POP POP SWAP3 SWAP6 POP SWAP3 SWAP6 SWAP1 SWAP4 POP JUMP JUMPDEST PUSH0 PUSH2 0xA5A DUP3 PUSH2 0x992 JUMP JUMPDEST SWAP2 POP PUSH2 0xA65 DUP4 PUSH2 0x992 JUMP JUMPDEST SWAP3 POP DUP3 DUP3 MUL PUSH2 0xA73 DUP2 PUSH2 0x992 JUMP JUMPDEST SWAP2 POP PUSH32 0x8000000000000000000000000000000000000000000000000000000000000000 DUP5 EQ PUSH0 DUP5 SLT AND ISZERO PUSH2 0xAAA JUMPI PUSH2 0xAA9 PUSH2 0x7BA JUMP JUMPDEST JUMPDEST DUP3 DUP3 SDIV DUP5 EQ DUP4 ISZERO OR PUSH2 0xABF JUMPI PUSH2 0xABE PUSH2 0x7BA JUMP JUMPDEST JUMPDEST POP SWAP3 SWAP2 POP POP JUMP INVALID LOG2 PUSH5 0x6970667358 0x22 SLT KECCAK256 0xBD SELFBALANCE 0x2B MLOAD DUP15 0xAC 0xB3 DUP1 0xA8 0x2A 0xB2 SWAP4 PUSH6 0xA867D1D9CDD PUSH32 0x12C8B57E85BB5D6EB3CF723564736F6C634300081E0033000000000000000000 "
				},
				"gasEstimates": {
					"creation": {
						"codeDepositCost": "562400",
						"executionCost": "infinite",
						"totalCost": "infinite"
					},
					"external": {
						"": "infinite",
						"addressToAmountFunded(address)": "2824",
						"fund()": "infinite",
						"funders(uint256)": "5031",
						"i_owner()": "infinite",
						"minimumUsd()": "303",
						"withdraw()": "infinite"
					}
				},
				"methodIdentifiers": {
					"addressToAmountFunded(address)": "3e47d6f3",
					"fund()": "b60d4288",
					"funders(uint256)": "dc0d3dff",
					"i_owner()": "dba6335f",
					"minimumUsd()": "098de820",
					"withdraw()": "3ccfd60b"
				}
			},
			"storageLayout": {
				"storage": [
					{
						"astId": 64,
						"contract": "FundMe.sol:FundMe",
						"label": "funders",
						"offset": 0,
						"slot": "0",
						"type": "t_array(t_address)dyn_storage"
					},
					{
						"astId": 68,
						"contract": "FundMe.sol:FundMe",
						"label": "addressToAmountFunded",
						"offset": 0,
						"slot": "1",
						"type": "t_mapping(t_address,t_uint256)"
					}
				],
				"types": {
					"t_address": {
						"encoding": "inplace",
						"label": "address",
						"numberOfBytes": "20"
					},
					"t_array(t_address)dyn_storage": {
						"base": "t_address",
						"encoding": "dynamic_array",
						"label": "address[]",
						"numberOfBytes": "32"
					},
					"t_mapping(t_address,t_uint256)": {
						"encoding": "mapping",
						"key": "t_address",
						"label": "mapping(address => uint256)",
						"numberOfBytes": "32",
						"value": "t_uint256"
					},
					"t_uint256": {
						"encoding": "inplace",
						"label": "uint256",
						"numberOfBytes": "32"
					}
				}
			},
			"userdoc": {
				"kind": "user",
				"methods": {},
				"version": 1
			}
		}
	}
}