{
	"FundMe.sol": {
		"FundMe": {
			"abi": [
				{
					"inputs": [],
					"name": "fund",
					"outputs": [],
					"stateMutability": "payable",
					"type": "function"
				},
				{
					"inputs": [],
					"name": "getConversionRate",
					"outputs": [],
					"stateMutability": "nonpayable",
					"type": "function"
				},
				{
					"inputs": [],
					"name": "getPrice",
					"outputs": [],
					"stateMutability": "nonpayable",
					"type": "function"
				},
				{
					"inputs": [],
					"name": "withdraw",
					"outputs": [],
					"stateMutability": "nonpayable",
					"type": "function"
				}
			],
			"devdoc": {
				"kind": "dev",
				"methods": {},
				"version": 1
			},
			"evm": {
				"assembly": "    /* \"FundMe.sol\":145:366  contract FundMe {... */\n  mstore(0x40, 0x80)\n  callvalue\n  dup1\n  iszero\n  tag_1\n  jumpi\n  revert(0x00, 0x00)\ntag_1:\n  pop\n  dataSize(sub_0)\n  dup1\n  dataOffset(sub_0)\n  0x00\n  codecopy\n  0x00\n  return\nstop\n\nsub_0: assembly {\n        /* \"FundMe.sol\":145:366  contract FundMe {... */\n      mstore(0x40, 0x80)\n      jumpi(tag_1, lt(calldatasize, 0x04))\n      shr(0xe0, calldataload(0x00))\n      dup1\n      0x3ccfd60b\n      eq\n      tag_2\n      jumpi\n      dup1\n      0x98d5fdca\n      eq\n      tag_3\n      jumpi\n      dup1\n      0xb60d4288\n      eq\n      tag_4\n      jumpi\n      dup1\n      0xf36089ec\n      eq\n      tag_5\n      jumpi\n    tag_1:\n      revert(0x00, 0x00)\n        /* \"FundMe.sol\":228:264  function withdraw() public { ... */\n    tag_2:\n      callvalue\n      dup1\n      iszero\n      tag_6\n      jumpi\n      revert(0x00, 0x00)\n    tag_6:\n      pop\n      tag_7\n      tag_8\n      jump\t// in\n    tag_7:\n      stop\n        /* \"FundMe.sol\":272:319  function getPrice() public {... */\n    tag_3:\n      callvalue\n      dup1\n      iszero\n      tag_9\n      jumpi\n      revert(0x00, 0x00)\n    tag_9:\n      pop\n      tag_10\n      tag_11\n      jump\t// in\n    tag_10:\n      stop\n        /* \"FundMe.sol\":168:220  function fund() public payable  {... */\n    tag_4:\n      tag_12\n      tag_13\n      jump\t// in\n    tag_12:\n      stop\n        /* \"FundMe.sol\":325:363  function getConversionRate() public {} */\n    tag_5:\n      callvalue\n      dup1\n      iszero\n      tag_14\n      jumpi\n      revert(0x00, 0x00)\n    tag_14:\n      pop\n      tag_15\n      tag_16\n      jump\t// in\n    tag_15:\n      stop\n        /* \"FundMe.sol\":228:264  function withdraw() public { ... */\n    tag_8:\n      jump\t// out\n        /* \"FundMe.sol\":272:319  function getPrice() public {... */\n    tag_11:\n      jump\t// out\n        /* \"FundMe.sol\":168:220  function fund() public payable  {... */\n    tag_13:\n      jump\t// out\n        /* \"FundMe.sol\":325:363  function getConversionRate() public {} */\n    tag_16:\n      jump\t// out\n\n    auxdata: 0xa2646970667358221220e418078e0bed3b6710912e80abb0462b2a09d97540892f049497f8b991935b7a64736f6c634300081e0033\n}\n",
				"bytecode": {
					"linkReferences": {},
					"object": "6080604052348015600e575f5ffd5b5060bc80601a5f395ff3fe6080604052600436106039575f3560e01c80633ccfd60b14603d57806398d5fdca146050578063b60d4288146063578063f36089ec14606b575b5f5ffd5b3480156047575f5ffd5b50604e607e565b005b348015605a575f5ffd5b5060616080565b005b60696082565b005b3480156075575f5ffd5b50607c6084565b005b565b565b565b56fea2646970667358221220e418078e0bed3b6710912e80abb0462b2a09d97540892f049497f8b991935b7a64736f6c634300081e0033",
					"opcodes": "PUSH1 0x80 PUSH1 0x40 MSTORE CALLVALUE DUP1 ISZERO PUSH1 0xE JUMPI PUSH0 PUSH0 REVERT JUMPDEST POP PUSH1 0xBC DUP1 PUSH1 0x1A PUSH0 CODECOPY PUSH0 RETURN INVALID PUSH1 0x80 PUSH1 0x40 MSTORE PUSH1 0x4 CALLDATASIZE LT PUSH1 0x39 JUMPI PUSH0 CALLDATALOAD PUSH1 0xE0 SHR DUP1 PUSH4 0x3CCFD60B EQ PUSH1 0x3D JUMPI DUP1 PUSH4 0x98D5FDCA EQ PUSH1 0x50 JUMPI DUP1 PUSH4 0xB60D4288 EQ PUSH1 0x63 JUMPI DUP1 PUSH4 0xF36089EC EQ PUSH1 0x6B JUMPI JUMPDEST PUSH0 PUSH0 REVERT JUMPDEST CALLVALUE DUP1 ISZERO PUSH1 0x47 JUMPI PUSH0 PUSH0 REVERT JUMPDEST POP PUSH1 0x4E PUSH1 0x7E JUMP JUMPDEST STOP JUMPDEST CALLVALUE DUP1 ISZERO PUSH1 0x5A JUMPI PUSH0 PUSH0 REVERT JUMPDEST POP PUSH1 0x61 PUSH1 0x80 JUMP JUMPDEST STOP JUMPDEST PUSH1 0x69 PUSH1 0x82 JUMP JUMPDEST STOP JUMPDEST CALLVALUE DUP1 ISZERO PUSH1 0x75 JUMPI PUSH0 PUSH0 REVERT JUMPDEST POP PUSH1 0x7C PUSH1 0x84 JUMP JUMPDEST STOP JUMPDEST JUMP JUMPDEST JUMP JUMPDEST JUMP JUMPDEST JUMP INVALID LOG2 PUSH5 0x6970667358 0x22 SLT KECCAK256 RETF XOR SMOD DUP15 SIGNEXTEND 0xED EXTCODESIZE PUSH8 0x10912E80ABB0462B 0x2A MULMOD 0xD9 PUSH22 0x40892F049497F8B991935B7A64736F6C634300081E00 CALLER "
				},
				"gasEstimates": {
					"creation": {
						"codeDepositCost": "37600",
						"executionCost": "85",
						"totalCost": "37685"
					},
					"external": {
						"fund()": "141",
						"getConversionRate()": "187",
						"getPrice()": "143",
						"withdraw()": "121"
					}
				},
				"methodIdentifiers": {
					"fund()": "b60d4288",
					"getConversionRate()": "f36089ec",
					"getPrice()": "98d5fdca",
					"withdraw()": "3ccfd60b"
				}
			},
			"storageLayout": {
				"storage": [],
				"types": null
			},
			"userdoc": {
				"kind": "user",
				"methods": {},
				"version": 1
			}
		}
	}
}